{
  "contractName": "Flashloan",
  "abi": [
    {
      "inputs": [],
      "stateMutability": "nonpayable",
      "type": "constructor"
    },
    {
      "anonymous": false,
      "inputs": [
        {
          "indexed": false,
          "internalType": "uint256",
          "name": "_balance",
          "type": "uint256"
        }
      ],
      "name": "CTokenBalance",
      "type": "event"
    },
    {
      "anonymous": false,
      "inputs": [
        {
          "indexed": false,
          "internalType": "bytes",
          "name": "data",
          "type": "bytes"
        }
      ],
      "name": "DecodePassedData",
      "type": "event"
    },
    {
      "anonymous": false,
      "inputs": [
        {
          "indexed": false,
          "internalType": "address",
          "name": "_reserve",
          "type": "address"
        },
        {
          "indexed": false,
          "internalType": "uint256",
          "name": "_amount",
          "type": "uint256"
        },
        {
          "indexed": false,
          "internalType": "uint256",
          "name": "_fee",
          "type": "uint256"
        },
        {
          "indexed": false,
          "internalType": "bytes",
          "name": "_params",
          "type": "bytes"
        }
      ],
      "name": "ExecuteOpreationEvent",
      "type": "event"
    },
    {
      "anonymous": false,
      "inputs": [
        {
          "indexed": false,
          "internalType": "uint256",
          "name": "Error",
          "type": "uint256"
        },
        {
          "indexed": false,
          "internalType": "uint256",
          "name": "liquidity",
          "type": "uint256"
        },
        {
          "indexed": false,
          "internalType": "uint256",
          "name": "shortfall",
          "type": "uint256"
        }
      ],
      "name": "GetAccountLiquidity",
      "type": "event"
    },
    {
      "anonymous": false,
      "inputs": [
        {
          "indexed": false,
          "internalType": "address",
          "name": "_underlyingaddress",
          "type": "address"
        }
      ],
      "name": "GetUnderlyingAddress",
      "type": "event"
    },
    {
      "anonymous": false,
      "inputs": [
        {
          "indexed": false,
          "internalType": "uint256",
          "name": "_err",
          "type": "uint256"
        }
      ],
      "name": "LiquidationEvent",
      "type": "event"
    },
    {
      "anonymous": false,
      "inputs": [
        {
          "indexed": false,
          "internalType": "uint256",
          "name": "_redeemError",
          "type": "uint256"
        }
      ],
      "name": "RedeemEvent",
      "type": "event"
    },
    {
      "anonymous": false,
      "inputs": [
        {
          "indexed": false,
          "internalType": "address",
          "name": "pool",
          "type": "address"
        },
        {
          "indexed": false,
          "internalType": "uint256",
          "name": "amount",
          "type": "uint256"
        }
      ],
      "name": "Test",
      "type": "event"
    },
    {
      "anonymous": false,
      "inputs": [
        {
          "indexed": false,
          "internalType": "uint256",
          "name": "value",
          "type": "uint256"
        }
      ],
      "name": "UintLog",
      "type": "event"
    },
    {
      "stateMutability": "payable",
      "type": "fallback"
    },
    {
      "inputs": [],
      "name": "addressesProvider",
      "outputs": [
        {
          "internalType": "contract ILendingPoolAddressesProvider",
          "name": "",
          "type": "address"
        }
      ],
      "stateMutability": "view",
      "type": "function"
    },
    {
      "inputs": [],
      "name": "comptroller",
      "outputs": [
        {
          "internalType": "contract ComptrollerInterface",
          "name": "",
          "type": "address"
        }
      ],
      "stateMutability": "view",
      "type": "function"
    },
    {
      "inputs": [],
      "name": "fee",
      "outputs": [
        {
          "internalType": "uint256",
          "name": "",
          "type": "uint256"
        }
      ],
      "stateMutability": "view",
      "type": "function"
    },
    {
      "inputs": [],
      "name": "owner",
      "outputs": [
        {
          "internalType": "address",
          "name": "",
          "type": "address"
        }
      ],
      "stateMutability": "view",
      "type": "function"
    },
    {
      "inputs": [
        {
          "internalType": "address",
          "name": "_reserve",
          "type": "address"
        },
        {
          "internalType": "uint256",
          "name": "_amount",
          "type": "uint256"
        },
        {
          "internalType": "uint256",
          "name": "_fee",
          "type": "uint256"
        },
        {
          "internalType": "bytes",
          "name": "_params",
          "type": "bytes"
        }
      ],
      "name": "executeOperation",
      "outputs": [],
      "stateMutability": "nonpayable",
      "type": "function"
    },
    {
      "inputs": [
        {
          "internalType": "address",
          "name": "_borrower",
          "type": "address"
        },
        {
          "internalType": "uint256",
          "name": "_repayAmount",
          "type": "uint256"
        },
        {
          "internalType": "contract CTokenInterface",
          "name": "_cTokenRepay",
          "type": "address"
        },
        {
          "internalType": "contract CTokenInterface",
          "name": "_cTokenCollateral",
          "type": "address"
        }
      ],
      "name": "flashloan",
      "outputs": [],
      "stateMutability": "nonpayable",
      "type": "function"
    },
    {
      "inputs": [
        {
          "internalType": "contract ComptrollerInterface",
          "name": "_comptroller",
          "type": "address"
        }
      ],
      "name": "setComptroller",
      "outputs": [],
      "stateMutability": "nonpayable",
      "type": "function"
    }
  ],
  "bytecode": "0x608060405234801561001057600080fd5b5033600160006101000a81548173ffffffffffffffffffffffffffffffffffffffff021916908373ffffffffffffffffffffffffffffffffffffffff1602179055506118af806100616000396000f3fe6080604052600436106100745760003560e01c8063ba8e1afa1161004e578063ba8e1afa14610176578063c72c4d1014610211578063ddca3f4314610268578063ee8725581461029357610075565b80635fe3b567146100775780638bad38dd146100ce5780638da5cb5b1461011f57610075565b5b005b34801561008357600080fd5b5061008c61034d565b604051808273ffffffffffffffffffffffffffffffffffffffff1673ffffffffffffffffffffffffffffffffffffffff16815260200191505060405180910390f35b3480156100da57600080fd5b5061011d600480360360208110156100f157600080fd5b81019080803573ffffffffffffffffffffffffffffffffffffffff169060200190929190505050610373565b005b34801561012b57600080fd5b506101346103b7565b604051808273ffffffffffffffffffffffffffffffffffffffff1673ffffffffffffffffffffffffffffffffffffffff16815260200191505060405180910390f35b34801561018257600080fd5b5061020f6004803603608081101561019957600080fd5b81019080803573ffffffffffffffffffffffffffffffffffffffff16906020019092919080359060200190929190803573ffffffffffffffffffffffffffffffffffffffff169060200190929190803573ffffffffffffffffffffffffffffffffffffffff1690602001909291905050506103dd565b005b34801561021d57600080fd5b50610226610704565b604051808273ffffffffffffffffffffffffffffffffffffffff1673ffffffffffffffffffffffffffffffffffffffff16815260200191505060405180910390f35b34801561027457600080fd5b5061027d61071c565b6040518082815260200191505060405180910390f35b34801561029f57600080fd5b5061034b600480360360808110156102b657600080fd5b81019080803573ffffffffffffffffffffffffffffffffffffffff16906020019092919080359060200190929190803590602001909291908035906020019064010000000081111561030757600080fd5b82018360208201111561031957600080fd5b8035906020019184600183028401116401000000008311171561033b57600080fd5b9091929391929390505050610722565b005b600260009054906101000a900473ffffffffffffffffffffffffffffffffffffffff1681565b80600260006101000a81548173ffffffffffffffffffffffffffffffffffffffff021916908373ffffffffffffffffffffffffffffffffffffffff16021790555050565b600160009054906101000a900473ffffffffffffffffffffffffffffffffffffffff1681565b606084848484604051602001808573ffffffffffffffffffffffffffffffffffffffff1673ffffffffffffffffffffffffffffffffffffffff1681526020018481526020018373ffffffffffffffffffffffffffffffffffffffff1673ffffffffffffffffffffffffffffffffffffffff1681526020018273ffffffffffffffffffffffffffffffffffffffff1673ffffffffffffffffffffffffffffffffffffffff168152602001945050505050604051602081830303815290604052905060008373ffffffffffffffffffffffffffffffffffffffff16636f307dc36040518163ffffffff1660e01b815260040160206040518083038186803b1580156104e557600080fd5b505afa1580156104f9573d6000803e3d6000fd5b505050506040513d602081101561050f57600080fd5b8101908080519060200190929190505050905060007324a42fd28c976a61df5d00d0599c34c4f90748c873ffffffffffffffffffffffffffffffffffffffff16630261bf8b6040518163ffffffff1660e01b815260040160206040518083038186803b15801561057e57600080fd5b505afa158015610592573d6000803e3d6000fd5b505050506040513d60208110156105a857600080fd5b810190808051906020019092919050505090508073ffffffffffffffffffffffffffffffffffffffff16635cffe9de308489876040518563ffffffff1660e01b8152600401808573ffffffffffffffffffffffffffffffffffffffff1673ffffffffffffffffffffffffffffffffffffffff1681526020018473ffffffffffffffffffffffffffffffffffffffff1673ffffffffffffffffffffffffffffffffffffffff16815260200183815260200180602001828103825283818151815260200191508051906020019080838360005b83811015610694578082015181840152602081019050610679565b50505050905090810190601f1680156106c15780820380516001836020036101000a031916815260200191505b5095505050505050600060405180830381600087803b1580156106e357600080fd5b505af11580156106f7573d6000803e3d6000fd5b5050505050505050505050565b7324a42fd28c976a61df5d00d0599c34c4f90748c881565b60005481565b61072c30866110be565b841115610784576040517f08c379a000000000000000000000000000000000000000000000000000000000815260040180806020018281038252602e815260200180611800602e913960400191505060405180910390fd5b61078c61174d565b8282608081101561079c57600080fd5b81019080803573ffffffffffffffffffffffffffffffffffffffff16906020019092919080359060200190929190803573ffffffffffffffffffffffffffffffffffffffff169060200190929190803573ffffffffffffffffffffffffffffffffffffffff169060200190929190505050839350819150809050846000018560200186604001876060018473ffffffffffffffffffffffffffffffffffffffff1673ffffffffffffffffffffffffffffffffffffffff168152508473ffffffffffffffffffffffffffffffffffffffff1673ffffffffffffffffffffffffffffffffffffffff16815250848152508473ffffffffffffffffffffffffffffffffffffffff1673ffffffffffffffffffffffffffffffffffffffff1681525050505050600260009054906101000a900473ffffffffffffffffffffffffffffffffffffffff1673ffffffffffffffffffffffffffffffffffffffff16635ec88c7982600001516040518263ffffffff1660e01b8152600401808273ffffffffffffffffffffffffffffffffffffffff1673ffffffffffffffffffffffffffffffffffffffff16815260200191505060606040518083038186803b15801561096157600080fd5b505afa158015610975573d6000803e3d6000fd5b505050506040513d606081101561098b57600080fd5b81019080805190602001909291908051906020019092919080519060200190929190505050836080018460a0018560c0018381525083815250838152505050506000816080015114610a28576040517f08c379a00000000000000000000000000000000000000000000000000000000081526004018080602001828103825260228152602001806118586022913960400191505060405180910390fd5b60008160a0015114610aa2576040517f08c379a00000000000000000000000000000000000000000000000000000000081526004018080602001828103825260128152602001807f4163636f756e74206973206865616c746879000000000000000000000000000081525060200191505060405180910390fd5b60008160c001511415610b1d576040517f08c379a00000000000000000000000000000000000000000000000000000000081526004018080602001828103825260128152602001807f4163636f756e74206973206865616c746879000000000000000000000000000081525060200191505060405180910390fd5b806040015173ffffffffffffffffffffffffffffffffffffffff16636f307dc36040518163ffffffff1660e01b815260040160206040518083038186803b158015610b6757600080fd5b505afa158015610b7b573d6000803e3d6000fd5b505050506040513d6020811015610b9157600080fd5b81019080805190602001909291905050508160e0019073ffffffffffffffffffffffffffffffffffffffff16908173ffffffffffffffffffffffffffffffffffffffff16815250508060e0015173ffffffffffffffffffffffffffffffffffffffff1663095ea7b3826040015183602001516040518363ffffffff1660e01b8152600401808373ffffffffffffffffffffffffffffffffffffffff1673ffffffffffffffffffffffffffffffffffffffff16815260200182815260200192505050602060405180830381600087803b158015610c6c57600080fd5b505af1158015610c80573d6000803e3d6000fd5b505050506040513d6020811015610c9657600080fd5b810190808051906020019092919050505050806040015173ffffffffffffffffffffffffffffffffffffffff1663f5e3c4628260000151836020015184606001516040518463ffffffff1660e01b8152600401808473ffffffffffffffffffffffffffffffffffffffff1673ffffffffffffffffffffffffffffffffffffffff1681526020018381526020018273ffffffffffffffffffffffffffffffffffffffff1673ffffffffffffffffffffffffffffffffffffffff1681526020019350505050602060405180830381600087803b158015610d7357600080fd5b505af1158015610d87573d6000803e3d6000fd5b505050506040513d6020811015610d9d57600080fd5b810190808051906020019092919050505081610100018181525050600081610100015114610e33576040517f08c379a000000000000000000000000000000000000000000000000000000000815260040180806020018281038252601b8152602001807f43616c6c204c69717569646174696f6e204572726f722021212120000000000081525060200191505060405180910390fd5b806060015173ffffffffffffffffffffffffffffffffffffffff166370a08231306040518263ffffffff1660e01b8152600401808273ffffffffffffffffffffffffffffffffffffffff1673ffffffffffffffffffffffffffffffffffffffff16815260200191505060206040518083038186803b158015610eb457600080fd5b505afa158015610ec8573d6000803e3d6000fd5b505050506040513d6020811015610ede57600080fd5b8101908080519060200190929190505050816101200181815250507f2816e632ce51cf139ed2fa08da51728edcf413ee09477ec742fb5650ed98d9848161012001516040518082815260200191505060405180910390a1806060015173ffffffffffffffffffffffffffffffffffffffff1663db006a758261012001516040518263ffffffff1660e01b815260040180828152602001915050602060405180830381600087803b158015610f9157600080fd5b505af1158015610fa5573d6000803e3d6000fd5b505050506040513d6020811015610fbb57600080fd5b8101908080519060200190929190505050816101400181815250507f3c1f3aa558ded9e980d689710e67bdb73ba9008c4db0b001ef67cb87e0e0e8788161014001516040518082815260200191505060405180910390a160008161014001511461108d576040517f08c379a00000000000000000000000000000000000000000000000000000000081526004018080602001828103825260128152602001807f52656465656d20546f6b656e204572726f72000000000000000000000000000081525060200191505060405180910390fd5b8360008190555060006110a985876111db90919063ffffffff16565b90506110b58782611263565b50505050505050565b60006110c861130c565b73ffffffffffffffffffffffffffffffffffffffff168273ffffffffffffffffffffffffffffffffffffffff16141561111a578273ffffffffffffffffffffffffffffffffffffffff163190506111d5565b8173ffffffffffffffffffffffffffffffffffffffff166370a08231846040518263ffffffff1660e01b8152600401808273ffffffffffffffffffffffffffffffffffffffff1673ffffffffffffffffffffffffffffffffffffffff16815260200191505060206040518083038186803b15801561119757600080fd5b505afa1580156111ab573d6000803e3d6000fd5b505050506040513d60208110156111c157600080fd5b810190808051906020019092919050505090505b92915050565b600080828401905083811015611259576040517f08c379a000000000000000000000000000000000000000000000000000000000815260040180806020018281038252601b8152602001807f536166654d6174683a206164646974696f6e206f766572666c6f77000000000081525060200191505060405180910390fd5b8091505092915050565b60007324a42fd28c976a61df5d00d0599c34c4f90748c873ffffffffffffffffffffffffffffffffffffffff1663ed6ff7606040518163ffffffff1660e01b815260040160206040518083038186803b1580156112bf57600080fd5b505afa1580156112d3573d6000803e3d6000fd5b505050506040513d60208110156112e957600080fd5b81019080805190602001909291905050509050611307818484611328565b505050565b600073eeeeeeeeeeeeeeeeeeeeeeeeeeeeeeeeeeeeeeee905090565b61133061130c565b73ffffffffffffffffffffffffffffffffffffffff168273ffffffffffffffffffffffffffffffffffffffff1614156113ce578273ffffffffffffffffffffffffffffffffffffffff168160405180600001905060006040518083038185875af1925050503d80600081146113c1576040519150601f19603f3d011682016040523d82523d6000602084013e6113c6565b606091505b5050506113fa565b6113f983828473ffffffffffffffffffffffffffffffffffffffff166113ff9092919063ffffffff16565b5b505050565b6114b28363a9059cbb60e01b8484604051602401808373ffffffffffffffffffffffffffffffffffffffff1673ffffffffffffffffffffffffffffffffffffffff16815260200182815260200192505050604051602081830303815290604052907bffffffffffffffffffffffffffffffffffffffffffffffffffffffff19166020820180517bffffffffffffffffffffffffffffffffffffffffffffffffffffffff83818316178352505050506114b7565b505050565b6114d68273ffffffffffffffffffffffffffffffffffffffff16611702565b611548576040517f08c379a000000000000000000000000000000000000000000000000000000000815260040180806020018281038252601f8152602001807f5361666545524332303a2063616c6c20746f206e6f6e2d636f6e74726163740081525060200191505060405180910390fd5b600060608373ffffffffffffffffffffffffffffffffffffffff16836040518082805190602001908083835b602083106115975780518252602082019150602081019050602083039250611574565b6001836020036101000a0380198251168184511680821785525050505050509050019150506000604051808303816000865af19150503d80600081146115f9576040519150601f19603f3d011682016040523d82523d6000602084013e6115fe565b606091505b509150915081611676576040517f08c379a00000000000000000000000000000000000000000000000000000000081526004018080602001828103825260208152602001807f5361666545524332303a206c6f772d6c6576656c2063616c6c206661696c656481525060200191505060405180910390fd5b6000815111156116fc5780806020019051602081101561169557600080fd5b81019080805190602001909291905050506116fb576040517f08c379a000000000000000000000000000000000000000000000000000000000815260040180806020018281038252602a81526020018061182e602a913960400191505060405180910390fd5b5b50505050565b60008060007fc5d2460186f7233c927e7db2dcc703c0e500b653ca82273b7bfad8045d85a47060001b9050833f91506000801b82141580156117445750808214155b92505050919050565b604051806101600160405280600073ffffffffffffffffffffffffffffffffffffffff16815260200160008152602001600073ffffffffffffffffffffffffffffffffffffffff168152602001600073ffffffffffffffffffffffffffffffffffffffff168152602001600081526020016000815260200160008152602001600073ffffffffffffffffffffffffffffffffffffffff168152602001600081526020016000815260200160008152509056fe496e76616c69642062616c616e63652c207761732074686520666c6173684c6f616e207375636365737366756c3f5361666545524332303a204552433230206f7065726174696f6e20646964206e6f7420737563636565644572726f72206765744163636f756e744c69717569646974792046756e6374696f6ea2646970667358221220ef785435c671fb0e99b0f58dff2f382de2789b9e29fa98ca9d670ce10268084064736f6c63430006020033",
  "source": "//pragma solidity ^0.5.15;\npragma solidity >=0.6.2;\n\nimport \"./aave/FlashLoanReceiverBase.sol\";\nimport \"./aave/ILendingPoolAddressesProvider.sol\";\nimport \"./aave/ILendingPool.sol\";\n\nimport \"./openzeppelin/IERC20.sol\";\n\nimport \"./compound/CTokenInterfaces.sol\";\nimport \"./compound/ComptrollerInterface.sol\";\n\n\ncontract Flashloan is FlashLoanReceiverBase {\n\n    event ExecuteOpreationEvent( address _reserve, uint256 _amount, uint256 _fee, bytes _params);\n    event DecodePassedData( bytes data );\n    event UintLog(uint value);\n    event GetAccountLiquidity( uint Error, uint liquidity, uint shortfall );\n    event GetUnderlyingAddress(address _underlyingaddress);\n    event LiquidationEvent(uint _err);\n    event CTokenBalance(uint _balance);\n    event RedeemEvent(uint _redeemError);\n    event Test(address pool, uint amount);\n\n    uint256 public fee;\n    address public owner;\n\n    // address public USDCAddress;\n    // address public DaiAddress;\n\n    ComptrollerInterface public comptroller;\n\n    constructor() public {\n        owner = msg.sender;\n    }\n\n\n    struct FlashloanLocalVars  {\n\n        address _borrower;\n        uint _repayAmount;\n        address _cTokenRepay;\n        address _cTokenCollateral;\n\n        uint getLiquidityError;\n        uint liquidity;\n        uint shortfall;\n        \n        address underlyingAddress;\n\n        uint liquidateBorrowError;\n        uint cTokenBalance;  // ctoken Balance after Liquidation\n        uint redeemErrorCode;\n    }\n    \n    function executeOperation(\n        address _reserve,\n        uint256 _amount,\n        uint256 _fee,\n        bytes calldata _params\n    )\n        external override\n    {\n        require(_amount <= getBalanceInternal(address(this), _reserve), \"Invalid balance, was the flashLoan successful?\");\n        //emit ExecuteOpreationEvent(_reserve, _amount, _fee, _params);\n\n        FlashloanLocalVars memory vars;\n\n        /* Decode _params */\n        (\n            vars._borrower,\n            vars._repayAmount,\n            vars._cTokenRepay,\n            vars._cTokenCollateral\n\n        ) = abi.decode(_params,(address,uint,address,address));\n\n        /* Get Account Liqudity Again before Contract Call */\n        ( vars.getLiquidityError, vars.liquidity, vars.shortfall  ) = comptroller.getAccountLiquidity(vars._borrower);\n\n        require(vars.getLiquidityError == 0, \"Error getAccountLiquidity Function\");\n        require(vars.liquidity == 0, \"Account is healthy\");\n        require(vars.shortfall != 0, \"Account is healthy\");\n\n        /* Get Underlying Token address Bat, Usdc etc...  */\n        vars.underlyingAddress = CErc20Storage(vars._cTokenRepay).underlying();\n        //emit GetUnderlyingAddress(underlyingAddress);\n\n        /* Approve this(address) for underlying token  */\n        IERC20(vars.underlyingAddress).approve(vars._cTokenRepay, vars._repayAmount);\n\n        /* Call Comptroller Liquidation */\n\t\tvars.liquidateBorrowError =\tCErc20Interface(vars._cTokenRepay).liquidateBorrow(\n                vars._borrower,\n                vars._repayAmount,\n                CTokenInterface(vars._cTokenCollateral)\n            );\n        // emit LiquidationEvent(err1);\n        require(vars.liquidateBorrowError==0, \"Call Liquidation Error !!! \");\n\n        /* Get CToken Balance */\n        vars.cTokenBalance = CTokenInterface(vars._cTokenCollateral).balanceOf(address(this));\n        emit CTokenBalance(vars.cTokenBalance);\n\n        /* Redeem Liquidated assets From CToken */\n        vars.redeemErrorCode = CErc20Interface(vars._cTokenCollateral).redeem(vars.cTokenBalance);\n        emit RedeemEvent(vars.redeemErrorCode);\n        require(vars.redeemErrorCode == 0, \"Redeem Token Error\");\n\n        /* Start Uniswap Procedure */\n\n        /* If Collatreall asset is Dai or USDC or USDT do not run uniswap selling procedure */\n\n        // Time to transfer the funds back\n        fee = _fee;\n\n        uint totalDebt = _amount.add(_fee);\n        transferFundsBackToPoolInternal(_reserve, totalDebt);\n    }\n\n\n\n    function flashloan(\n        address _borrower,\n        uint _repayAmount,\n        CTokenInterface _cTokenRepay,\n        CTokenInterface _cTokenCollateral\n    )\n        public\n    {\n\n        /* Encode Passed Data */\n        bytes memory data = abi.encode(_borrower,_repayAmount,_cTokenRepay,_cTokenCollateral);\n        /* Get Underlying Token address Bat, Usdc etc...  */\n        address underlyingAddress = CErc20Storage(address(_cTokenRepay)).underlying();\n\n        //emit Test(asset, amount);\n        ILendingPool lendingPool = ILendingPool(addressesProvider.getLendingPool());\n        lendingPool.flashLoan(address(this), underlyingAddress, _repayAmount, data);\n    }\n\n\n    function setComptroller(ComptrollerInterface _comptroller) public {\n        comptroller = _comptroller;\n    }\n\n\n    // function getContractBalance() public returns \n    // function getContractErc20Balance() public returns\n    // function  transferTokens( _toAddress ) \n\n}",
  "sourcePath": "/Users/achiko/Documents/elva/projects/defipools/flashloan-compound/contracts/Flashloan.sol",
  "compiler": {
    "name": "solc",
    "version": "0.6.2+commit.bacdbe57.Emscripten.clang"
  },
  "schemaVersion": "3.2.0",
  "updatedAt": "2020-07-01T09:02:53.948Z",
  "devdoc": {
    "methods": {}
  },
  "userdoc": {
    "methods": {}
  }
}