{
  "contractName": "Flashloan",
  "abi": [
    {
      "inputs": [],
      "stateMutability": "nonpayable",
      "type": "constructor"
    },
    {
      "anonymous": false,
      "inputs": [
        {
          "indexed": false,
          "internalType": "bool",
          "name": "approveResponse",
          "type": "bool"
        },
        {
          "indexed": false,
          "internalType": "uint256",
          "name": "allowance",
          "type": "uint256"
        },
        {
          "indexed": false,
          "internalType": "address",
          "name": "cTokenRepay",
          "type": "address"
        },
        {
          "indexed": false,
          "internalType": "address",
          "name": "token",
          "type": "address"
        },
        {
          "indexed": false,
          "internalType": "uint256",
          "name": "balance",
          "type": "uint256"
        },
        {
          "indexed": false,
          "internalType": "uint256",
          "name": "repayAmount",
          "type": "uint256"
        }
      ],
      "name": "AccountTokenBalance",
      "type": "event"
    },
    {
      "anonymous": false,
      "inputs": [
        {
          "indexed": false,
          "internalType": "uint256",
          "name": "_balance",
          "type": "uint256"
        }
      ],
      "name": "CTokenBalance",
      "type": "event"
    },
    {
      "anonymous": false,
      "inputs": [
        {
          "indexed": false,
          "internalType": "address",
          "name": "_reserve",
          "type": "address"
        },
        {
          "indexed": false,
          "internalType": "uint256",
          "name": "_amount",
          "type": "uint256"
        },
        {
          "indexed": false,
          "internalType": "uint256",
          "name": "_fee",
          "type": "uint256"
        },
        {
          "indexed": false,
          "internalType": "bytes",
          "name": "_params",
          "type": "bytes"
        }
      ],
      "name": "ExecuteOpreationEvent",
      "type": "event"
    },
    {
      "anonymous": false,
      "inputs": [
        {
          "indexed": false,
          "internalType": "uint256",
          "name": "Error",
          "type": "uint256"
        },
        {
          "indexed": false,
          "internalType": "uint256",
          "name": "liquidity",
          "type": "uint256"
        },
        {
          "indexed": false,
          "internalType": "uint256",
          "name": "shortfall",
          "type": "uint256"
        }
      ],
      "name": "GetAccountLiquidity",
      "type": "event"
    },
    {
      "anonymous": false,
      "inputs": [
        {
          "indexed": false,
          "internalType": "address",
          "name": "_underlyingaddress",
          "type": "address"
        }
      ],
      "name": "GetUnderlyingAddress",
      "type": "event"
    },
    {
      "anonymous": false,
      "inputs": [
        {
          "indexed": false,
          "internalType": "uint256",
          "name": "_err",
          "type": "uint256"
        }
      ],
      "name": "LiquidationEvent",
      "type": "event"
    },
    {
      "anonymous": false,
      "inputs": [
        {
          "indexed": false,
          "internalType": "uint256",
          "name": "_tokenInAmount",
          "type": "uint256"
        },
        {
          "indexed": false,
          "internalType": "address",
          "name": "_tokenInAddress",
          "type": "address"
        },
        {
          "indexed": false,
          "internalType": "address",
          "name": "_tokenOutAddress",
          "type": "address"
        },
        {
          "indexed": false,
          "internalType": "address",
          "name": "_to",
          "type": "address"
        },
        {
          "indexed": false,
          "internalType": "uint256",
          "name": "_deadline",
          "type": "uint256"
        },
        {
          "indexed": false,
          "internalType": "uint256[]",
          "name": "amounts",
          "type": "uint256[]"
        }
      ],
      "name": "LogConvertTokensToTokensEvent",
      "type": "event"
    },
    {
      "anonymous": false,
      "inputs": [
        {
          "indexed": false,
          "internalType": "uint256",
          "name": "_redeemError",
          "type": "uint256"
        }
      ],
      "name": "RedeemEvent",
      "type": "event"
    },
    {
      "anonymous": false,
      "inputs": [
        {
          "indexed": false,
          "internalType": "uint256",
          "name": "_amount",
          "type": "uint256"
        },
        {
          "indexed": false,
          "internalType": "address",
          "name": "_tokensOut",
          "type": "address"
        },
        {
          "indexed": false,
          "internalType": "address[]",
          "name": "path",
          "type": "address[]"
        }
      ],
      "name": "convertEthToAnyToken",
      "type": "event"
    },
    {
      "stateMutability": "payable",
      "type": "fallback"
    },
    {
      "inputs": [],
      "name": "addressesProvider",
      "outputs": [
        {
          "internalType": "contract ILendingPoolAddressesProvider",
          "name": "",
          "type": "address"
        }
      ],
      "stateMutability": "view",
      "type": "function"
    },
    {
      "inputs": [],
      "name": "comptroller",
      "outputs": [
        {
          "internalType": "contract ComptrollerInterface",
          "name": "",
          "type": "address"
        }
      ],
      "stateMutability": "view",
      "type": "function"
    },
    {
      "inputs": [],
      "name": "fee",
      "outputs": [
        {
          "internalType": "uint256",
          "name": "",
          "type": "uint256"
        }
      ],
      "stateMutability": "view",
      "type": "function"
    },
    {
      "inputs": [],
      "name": "treasuryWallet",
      "outputs": [
        {
          "internalType": "address",
          "name": "",
          "type": "address"
        }
      ],
      "stateMutability": "view",
      "type": "function"
    },
    {
      "inputs": [],
      "name": "uniswapRouter",
      "outputs": [
        {
          "internalType": "contract IUniswapV2Router02",
          "name": "",
          "type": "address"
        }
      ],
      "stateMutability": "view",
      "type": "function"
    },
    {
      "inputs": [
        {
          "internalType": "address",
          "name": "_reserve",
          "type": "address"
        },
        {
          "internalType": "uint256",
          "name": "_amount",
          "type": "uint256"
        },
        {
          "internalType": "uint256",
          "name": "_fee",
          "type": "uint256"
        },
        {
          "internalType": "bytes",
          "name": "_params",
          "type": "bytes"
        }
      ],
      "name": "executeOperation",
      "outputs": [],
      "stateMutability": "nonpayable",
      "type": "function"
    },
    {
      "inputs": [
        {
          "internalType": "address",
          "name": "_borrower",
          "type": "address"
        },
        {
          "internalType": "uint256",
          "name": "_repayAmount",
          "type": "uint256"
        },
        {
          "internalType": "contract CTokenInterface",
          "name": "_cTokenRepay",
          "type": "address"
        },
        {
          "internalType": "contract CTokenInterface",
          "name": "_cTokenCollateral",
          "type": "address"
        }
      ],
      "name": "flashloan",
      "outputs": [],
      "stateMutability": "nonpayable",
      "type": "function"
    },
    {
      "inputs": [
        {
          "internalType": "uint256",
          "name": "_tokenInAmount",
          "type": "uint256"
        },
        {
          "internalType": "address",
          "name": "_tokenInAddress",
          "type": "address"
        },
        {
          "internalType": "address",
          "name": "_tokenOutAddress",
          "type": "address"
        },
        {
          "internalType": "address",
          "name": "_to",
          "type": "address"
        },
        {
          "internalType": "uint256",
          "name": "_deadline",
          "type": "uint256"
        }
      ],
      "name": "convertTokensToTokens",
      "outputs": [],
      "stateMutability": "payable",
      "type": "function"
    },
    {
      "inputs": [
        {
          "internalType": "contract ComptrollerInterface",
          "name": "_comptroller",
          "type": "address"
        }
      ],
      "name": "setComptroller",
      "outputs": [],
      "stateMutability": "nonpayable",
      "type": "function"
    },
    {
      "inputs": [],
      "name": "getNow",
      "outputs": [
        {
          "internalType": "uint256",
          "name": "_now",
          "type": "uint256"
        }
      ],
      "stateMutability": "view",
      "type": "function"
    },
    {
      "inputs": [
        {
          "internalType": "address",
          "name": "_wallet",
          "type": "address"
        }
      ],
      "name": "setTreasuryWallet",
      "outputs": [],
      "stateMutability": "nonpayable",
      "type": "function"
    },
    {
      "inputs": [],
      "name": "getTreasuryWallet",
      "outputs": [
        {
          "internalType": "address",
          "name": "_treasuryWallet",
          "type": "address"
        }
      ],
      "stateMutability": "view",
      "type": "function"
    },
    {
      "inputs": [],
      "name": "getowner",
      "outputs": [
        {
          "internalType": "address",
          "name": "ownerAddress",
          "type": "address"
        }
      ],
      "stateMutability": "view",
      "type": "function"
    },
    {
      "inputs": [],
      "name": "owner",
      "outputs": [
        {
          "internalType": "address",
          "name": "",
          "type": "address"
        }
      ],
      "stateMutability": "view",
      "type": "function"
    },
    {
      "inputs": [],
      "name": "getContractBalance",
      "outputs": [
        {
          "internalType": "uint256",
          "name": "",
          "type": "uint256"
        }
      ],
      "stateMutability": "view",
      "type": "function"
    },
    {
      "inputs": [
        {
          "internalType": "address",
          "name": "_underlyingAddress",
          "type": "address"
        }
      ],
      "name": "getContractErc20Balance",
      "outputs": [
        {
          "internalType": "address",
          "name": "_erc20Address",
          "type": "address"
        },
        {
          "internalType": "uint256",
          "name": "_balance",
          "type": "uint256"
        }
      ],
      "stateMutability": "view",
      "type": "function"
    },
    {
      "inputs": [
        {
          "internalType": "address",
          "name": "_erc20address",
          "type": "address"
        },
        {
          "internalType": "address",
          "name": "_to",
          "type": "address"
        }
      ],
      "name": "transferAllErc20Tokens",
      "outputs": [
        {
          "internalType": "bool",
          "name": "result",
          "type": "bool"
        }
      ],
      "stateMutability": "nonpayable",
      "type": "function"
    }
  ],
  "bytecode": "0x608060405234801561001057600080fd5b50600033905080600160006101000a81548173ffffffffffffffffffffffffffffffffffffffff021916908373ffffffffffffffffffffffffffffffffffffffff160217905550737a250d5630b4cf539739df2c5dacb4c659f2488d600360006101000a81548173ffffffffffffffffffffffffffffffffffffffff021916908373ffffffffffffffffffffffffffffffffffffffff16021790555050613737806100bc6000396000f3fe6080604052600436106101025760003560e01c80638bad38dd11610095578063bbe4fd5011610064578063bbe4fd50146105d9578063c72c4d1014610604578063ddca3f431461065b578063ee87255814610686578063fe0174bd1461074057610103565b80638bad38dd146104455780638da5cb5b14610496578063a8602fea146104ed578063ba8e1afa1461053e57610103565b80636eccaeb5116100d15780636eccaeb5146102a25780636f9fb98a1461032b578063735de9f7146103565780637cab941c146103ad57610103565b80632c035b74146101055780634626402b1461015c5780634f7e414f146101b35780635fe3b5671461024b57610103565b5b005b34801561011157600080fd5b5061011a610797565b604051808273ffffffffffffffffffffffffffffffffffffffff1673ffffffffffffffffffffffffffffffffffffffff16815260200191505060405180910390f35b34801561016857600080fd5b506101716107c1565b604051808273ffffffffffffffffffffffffffffffffffffffff1673ffffffffffffffffffffffffffffffffffffffff16815260200191505060405180910390f35b3480156101bf57600080fd5b50610202600480360360208110156101d657600080fd5b81019080803573ffffffffffffffffffffffffffffffffffffffff1690602001909291905050506107e7565b604051808373ffffffffffffffffffffffffffffffffffffffff1673ffffffffffffffffffffffffffffffffffffffff1681526020018281526020019250505060405180910390f35b34801561025757600080fd5b506102606108ac565b604051808273ffffffffffffffffffffffffffffffffffffffff1673ffffffffffffffffffffffffffffffffffffffff16815260200191505060405180910390f35b3480156102ae57600080fd5b50610311600480360360408110156102c557600080fd5b81019080803573ffffffffffffffffffffffffffffffffffffffff169060200190929190803573ffffffffffffffffffffffffffffffffffffffff1690602001909291905050506108d2565b604051808215151515815260200191505060405180910390f35b34801561033757600080fd5b50610340610b94565b6040518082815260200191505060405180910390f35b34801561036257600080fd5b5061036b610bb3565b604051808273ffffffffffffffffffffffffffffffffffffffff1673ffffffffffffffffffffffffffffffffffffffff16815260200191505060405180910390f35b610443600480360360a08110156103c357600080fd5b8101908080359060200190929190803573ffffffffffffffffffffffffffffffffffffffff169060200190929190803573ffffffffffffffffffffffffffffffffffffffff169060200190929190803573ffffffffffffffffffffffffffffffffffffffff16906020019092919080359060200190929190505050610bd9565b005b34801561045157600080fd5b506104946004803603602081101561046857600080fd5b81019080803573ffffffffffffffffffffffffffffffffffffffff169060200190929190505050611168565b005b3480156104a257600080fd5b506104ab6111ac565b604051808273ffffffffffffffffffffffffffffffffffffffff1673ffffffffffffffffffffffffffffffffffffffff16815260200191505060405180910390f35b3480156104f957600080fd5b5061053c6004803603602081101561051057600080fd5b81019080803573ffffffffffffffffffffffffffffffffffffffff1690602001909291905050506111d6565b005b34801561054a57600080fd5b506105d76004803603608081101561056157600080fd5b81019080803573ffffffffffffffffffffffffffffffffffffffff16906020019092919080359060200190929190803573ffffffffffffffffffffffffffffffffffffffff169060200190929190803573ffffffffffffffffffffffffffffffffffffffff1690602001909291905050506112dd565b005b3480156105e557600080fd5b506105ee61172c565b6040518082815260200191505060405180910390f35b34801561061057600080fd5b50610619611738565b604051808273ffffffffffffffffffffffffffffffffffffffff1673ffffffffffffffffffffffffffffffffffffffff16815260200191505060405180910390f35b34801561066757600080fd5b50610670611750565b6040518082815260200191505060405180910390f35b34801561069257600080fd5b5061073e600480360360808110156106a957600080fd5b81019080803573ffffffffffffffffffffffffffffffffffffffff1690602001909291908035906020019092919080359060200190929190803590602001906401000000008111156106fa57600080fd5b82018360208201111561070c57600080fd5b8035906020019184600183028401116401000000008311171561072e57600080fd5b9091929391929390505050611756565b005b34801561074c57600080fd5b50610755612eac565b604051808273ffffffffffffffffffffffffffffffffffffffff1673ffffffffffffffffffffffffffffffffffffffff16815260200191505060405180910390f35b6000600260009054906101000a900473ffffffffffffffffffffffffffffffffffffffff16905090565b600260009054906101000a900473ffffffffffffffffffffffffffffffffffffffff1681565b6000808273ffffffffffffffffffffffffffffffffffffffff166370a08231306040518263ffffffff1660e01b8152600401808273ffffffffffffffffffffffffffffffffffffffff1673ffffffffffffffffffffffffffffffffffffffff16815260200191505060206040518083038186803b15801561086757600080fd5b505afa15801561087b573d6000803e3d6000fd5b505050506040513d602081101561089157600080fd5b81019080805190602001909291905050509050829150915091565b600460009054906101000a900473ffffffffffffffffffffffffffffffffffffffff1681565b60003373ffffffffffffffffffffffffffffffffffffffff16600160009054906101000a900473ffffffffffffffffffffffffffffffffffffffff1673ffffffffffffffffffffffffffffffffffffffff1614610997576040517f08c379a00000000000000000000000000000000000000000000000000000000081526004018080602001828103825260208152602001807f4f776e61626c653a2063616c6c6572206973206e6f7420746865206f776e657281525060200191505060405180910390fd5b60008373ffffffffffffffffffffffffffffffffffffffff166370a08231306040518263ffffffff1660e01b8152600401808273ffffffffffffffffffffffffffffffffffffffff1673ffffffffffffffffffffffffffffffffffffffff16815260200191505060206040518083038186803b158015610a1657600080fd5b505afa158015610a2a573d6000803e3d6000fd5b505050506040513d6020811015610a4057600080fd5b8101908080519060200190929190505050905060008111610ac9576040517f08c379a00000000000000000000000000000000000000000000000000000000081526004018080602001828103825260128152602001807f4e4f5420454e4f5547482042414c414e4345000000000000000000000000000081525060200191505060405180910390fd5b8373ffffffffffffffffffffffffffffffffffffffff1663a9059cbb84836040518363ffffffff1660e01b8152600401808373ffffffffffffffffffffffffffffffffffffffff1673ffffffffffffffffffffffffffffffffffffffff16815260200182815260200192505050602060405180830381600087803b158015610b5057600080fd5b505af1158015610b64573d6000803e3d6000fd5b505050506040513d6020811015610b7a57600080fd5b810190808051906020019092919050505091505092915050565b60003073ffffffffffffffffffffffffffffffffffffffff1631905090565b600360009054906101000a900473ffffffffffffffffffffffffffffffffffffffff1681565b8373ffffffffffffffffffffffffffffffffffffffff1663095ea7b3737a250d5630b4cf539739df2c5dacb4c659f2488d876040518363ffffffff1660e01b8152600401808373ffffffffffffffffffffffffffffffffffffffff1673ffffffffffffffffffffffffffffffffffffffff16815260200182815260200192505050602060405180830381600087803b158015610c7457600080fd5b505af1158015610c88573d6000803e3d6000fd5b505050506040513d6020811015610c9e57600080fd5b81019080805190602001909291905050505060606002604051908082528060200260200182016040528015610ce25781602001602082028038833980820191505090505b5090508481600081518110610cf357fe5b602002602001019073ffffffffffffffffffffffffffffffffffffffff16908173ffffffffffffffffffffffffffffffffffffffff1681525050600360009054906101000a900473ffffffffffffffffffffffffffffffffffffffff1673ffffffffffffffffffffffffffffffffffffffff1663ad5c46486040518163ffffffff1660e01b815260040160206040518083038186803b158015610d9557600080fd5b505afa158015610da9573d6000803e3d6000fd5b505050506040513d6020811015610dbf57600080fd5b810190808051906020019092919050505081600181518110610ddd57fe5b602002602001019073ffffffffffffffffffffffffffffffffffffffff16908173ffffffffffffffffffffffffffffffffffffffff16815250508381600281518110610e2557fe5b602002602001019073ffffffffffffffffffffffffffffffffffffffff16908173ffffffffffffffffffffffffffffffffffffffff16815250506060600360009054906101000a900473ffffffffffffffffffffffffffffffffffffffff1673ffffffffffffffffffffffffffffffffffffffff166338ed17398860008588886040518663ffffffff1660e01b815260040180868152602001858152602001806020018473ffffffffffffffffffffffffffffffffffffffff1673ffffffffffffffffffffffffffffffffffffffff168152602001838152602001828103825285818151815260200191508051906020019060200280838360005b83811015610f3b578082015181840152602081019050610f20565b505050509050019650505050505050600060405180830381600087803b158015610f6457600080fd5b505af1158015610f78573d6000803e3d6000fd5b505050506040513d6000823e3d601f19601f820116820180604052506020811015610fa257600080fd5b8101908080516040519392919084640100000000821115610fc257600080fd5b83820191506020820185811115610fd857600080fd5b8251866020820283011164010000000082111715610ff557600080fd5b8083526020830192505050908051906020019060200280838360005b8381101561102c578082015181840152602081019050611011565b5050505090500160405250505090507fb3d81fb7e4574902882ae9eb784ebfb16230e90e9753c2de7778fae67b5dfe29878787878786604051808781526020018673ffffffffffffffffffffffffffffffffffffffff1673ffffffffffffffffffffffffffffffffffffffff1681526020018573ffffffffffffffffffffffffffffffffffffffff1673ffffffffffffffffffffffffffffffffffffffff1681526020018473ffffffffffffffffffffffffffffffffffffffff1673ffffffffffffffffffffffffffffffffffffffff16815260200183815260200180602001828103825283818151815260200191508051906020019060200280838360005b8381101561114757808201518184015260208101905061112c565b5050505090500197505050505050505060405180910390a150505050505050565b80600460006101000a81548173ffffffffffffffffffffffffffffffffffffffff021916908373ffffffffffffffffffffffffffffffffffffffff16021790555050565b6000600160009054906101000a900473ffffffffffffffffffffffffffffffffffffffff16905090565b3373ffffffffffffffffffffffffffffffffffffffff16600160009054906101000a900473ffffffffffffffffffffffffffffffffffffffff1673ffffffffffffffffffffffffffffffffffffffff1614611299576040517f08c379a00000000000000000000000000000000000000000000000000000000081526004018080602001828103825260208152602001807f4f776e61626c653a2063616c6c6572206973206e6f7420746865206f776e657281525060200191505060405180910390fd5b80600260006101000a81548173ffffffffffffffffffffffffffffffffffffffff021916908373ffffffffffffffffffffffffffffffffffffffff16021790555050565b3373ffffffffffffffffffffffffffffffffffffffff16600160009054906101000a900473ffffffffffffffffffffffffffffffffffffffff1673ffffffffffffffffffffffffffffffffffffffff16146113a0576040517f08c379a00000000000000000000000000000000000000000000000000000000081526004018080602001828103825260208152602001807f4f776e61626c653a2063616c6c6572206973206e6f7420746865206f776e657281525060200191505060405180910390fd5b606084848484604051602001808573ffffffffffffffffffffffffffffffffffffffff1673ffffffffffffffffffffffffffffffffffffffff1681526020018481526020018373ffffffffffffffffffffffffffffffffffffffff1673ffffffffffffffffffffffffffffffffffffffff1681526020018273ffffffffffffffffffffffffffffffffffffffff1673ffffffffffffffffffffffffffffffffffffffff16815260200194505050505060405160208183030381529060405290506000734ddc2d193948926d02f9b1fe9e1daa0718270ed573ffffffffffffffffffffffffffffffffffffffff168473ffffffffffffffffffffffffffffffffffffffff1614156114c65773eeeeeeeeeeeeeeeeeeeeeeeeeeeeeeeeeeeeeeee905061154a565b8373ffffffffffffffffffffffffffffffffffffffff16636f307dc36040518163ffffffff1660e01b815260040160206040518083038186803b15801561150c57600080fd5b505afa158015611520573d6000803e3d6000fd5b505050506040513d602081101561153657600080fd5b810190808051906020019092919050505090505b60007324a42fd28c976a61df5d00d0599c34c4f90748c873ffffffffffffffffffffffffffffffffffffffff16630261bf8b6040518163ffffffff1660e01b815260040160206040518083038186803b1580156115a657600080fd5b505afa1580156115ba573d6000803e3d6000fd5b505050506040513d60208110156115d057600080fd5b810190808051906020019092919050505090508073ffffffffffffffffffffffffffffffffffffffff16635cffe9de308489876040518563ffffffff1660e01b8152600401808573ffffffffffffffffffffffffffffffffffffffff1673ffffffffffffffffffffffffffffffffffffffff1681526020018473ffffffffffffffffffffffffffffffffffffffff1673ffffffffffffffffffffffffffffffffffffffff16815260200183815260200180602001828103825283818151815260200191508051906020019080838360005b838110156116bc5780820151818401526020810190506116a1565b50505050905090810190601f1680156116e95780820380516001836020036101000a031916815260200191505b5095505050505050600060405180830381600087803b15801561170b57600080fd5b505af115801561171f573d6000803e3d6000fd5b5050505050505050505050565b60006117704201905090565b7324a42fd28c976a61df5d00d0599c34c4f90748c881565b60005481565b6117603086612ed6565b8411156117b8576040517f08c379a000000000000000000000000000000000000000000000000000000000815260040180806020018281038252602e8152602001806136aa602e913960400191505060405180910390fd5b6117c0613565565b828260808110156117d057600080fd5b81019080803573ffffffffffffffffffffffffffffffffffffffff16906020019092919080359060200190929190803573ffffffffffffffffffffffffffffffffffffffff169060200190929190803573ffffffffffffffffffffffffffffffffffffffff169060200190929190505050839350819150809050846000018560200186604001876060018473ffffffffffffffffffffffffffffffffffffffff1673ffffffffffffffffffffffffffffffffffffffff168152508473ffffffffffffffffffffffffffffffffffffffff1673ffffffffffffffffffffffffffffffffffffffff16815250848152508473ffffffffffffffffffffffffffffffffffffffff1673ffffffffffffffffffffffffffffffffffffffff1681525050505050734ddc2d193948926d02f9b1fe9e1daa0718270ed573ffffffffffffffffffffffffffffffffffffffff16816040015173ffffffffffffffffffffffffffffffffffffffff16146119fa57806040015173ffffffffffffffffffffffffffffffffffffffff16636f307dc36040518163ffffffff1660e01b815260040160206040518083038186803b15801561198757600080fd5b505afa15801561199b573d6000803e3d6000fd5b505050506040513d60208110156119b157600080fd5b81019080805190602001909291905050508160e0019073ffffffffffffffffffffffffffffffffffffffff16908173ffffffffffffffffffffffffffffffffffffffff16815250505b734ddc2d193948926d02f9b1fe9e1daa0718270ed573ffffffffffffffffffffffffffffffffffffffff16816060015173ffffffffffffffffffffffffffffffffffffffff1614611b0357806060015173ffffffffffffffffffffffffffffffffffffffff16636f307dc36040518163ffffffff1660e01b815260040160206040518083038186803b158015611a8f57600080fd5b505afa158015611aa3573d6000803e3d6000fd5b505050506040513d6020811015611ab957600080fd5b810190808051906020019092919050505081610100019073ffffffffffffffffffffffffffffffffffffffff16908173ffffffffffffffffffffffffffffffffffffffff16815250505b734ddc2d193948926d02f9b1fe9e1daa0718270ed573ffffffffffffffffffffffffffffffffffffffff16816040015173ffffffffffffffffffffffffffffffffffffffff1614156122b2576000816040015173ffffffffffffffffffffffffffffffffffffffff1663aae40a2a8360200151846000015185606001516040518463ffffffff1660e01b8152600401808373ffffffffffffffffffffffffffffffffffffffff1673ffffffffffffffffffffffffffffffffffffffff1681526020018273ffffffffffffffffffffffffffffffffffffffff1673ffffffffffffffffffffffffffffffffffffffff168152602001925050506020604051808303818588803b158015611c1457600080fd5b505af1158015611c28573d6000803e3d6000fd5b50505050506040513d6020811015611c3f57600080fd5b810190808051906020019092919050505090507f8573d5e437e61f10952ead8be46aea771a9c81cb0e7b7af6e35c2dc697c3af6a816040518082815260200191505060405180910390a1600082610120015114611d04576040517f08c379a000000000000000000000000000000000000000000000000000000000815260040180806020018281038252601d8152602001807f43616c6c204c69717569646174696f6e204572726f722031202121212000000081525060200191505060405180910390fd5b816060015173ffffffffffffffffffffffffffffffffffffffff166370a08231306040518263ffffffff1660e01b8152600401808273ffffffffffffffffffffffffffffffffffffffff1673ffffffffffffffffffffffffffffffffffffffff16815260200191505060206040518083038186803b158015611d8557600080fd5b505afa158015611d99573d6000803e3d6000fd5b505050506040513d6020811015611daf57600080fd5b8101908080519060200190929190505050826101600181815250507f2816e632ce51cf139ed2fa08da51728edcf413ee09477ec742fb5650ed98d9848261016001516040518082815260200191505060405180910390a1816060015173ffffffffffffffffffffffffffffffffffffffff1663db006a758361016001516040518263ffffffff1660e01b815260040180828152602001915050602060405180830381600087803b158015611e6257600080fd5b505af1158015611e76573d6000803e3d6000fd5b505050506040513d6020811015611e8c57600080fd5b8101908080519060200190929190505050826101800181815250507f3c1f3aa558ded9e980d689710e67bdb73ba9008c4db0b001ef67cb87e0e0e8788261018001516040518082815260200191505060405180910390a1600082610180015114611f5e576040517f08c379a00000000000000000000000000000000000000000000000000000000081526004018080602001828103825260128152602001807f52656465656d20546f6b656e204572726f72000000000000000000000000000081525060200191505060405180910390fd5b60606002604051908082528060200260200182016040528015611f905781602001602082028038833980820191505090505b50905082610100015181600081518110611fa657fe5b602002602001019073ffffffffffffffffffffffffffffffffffffffff16908173ffffffffffffffffffffffffffffffffffffffff1681525050600360009054906101000a900473ffffffffffffffffffffffffffffffffffffffff1673ffffffffffffffffffffffffffffffffffffffff1663ad5c46486040518163ffffffff1660e01b815260040160206040518083038186803b15801561204857600080fd5b505afa15801561205c573d6000803e3d6000fd5b505050506040513d602081101561207257600080fd5b81019080805190602001909291905050508160018151811061209057fe5b602002602001019073ffffffffffffffffffffffffffffffffffffffff16908173ffffffffffffffffffffffffffffffffffffffff1681525050600360009054906101000a900473ffffffffffffffffffffffffffffffffffffffff1673ffffffffffffffffffffffffffffffffffffffff166318cbafe58461016001516000843061211a61172c565b6040518663ffffffff1660e01b815260040180868152602001858152602001806020018473ffffffffffffffffffffffffffffffffffffffff1673ffffffffffffffffffffffffffffffffffffffff168152602001838152602001828103825285818151815260200191508051906020019060200280838360005b838110156121b0578082015181840152602081019050612195565b505050509050019650505050505050600060405180830381600087803b1580156121d957600080fd5b505af11580156121ed573d6000803e3d6000fd5b505050506040513d6000823e3d601f19601f82011682018060405250602081101561221757600080fd5b810190808051604051939291908464010000000082111561223757600080fd5b8382019150602082018581111561224d57600080fd5b825186602082028301116401000000008211171561226a57600080fd5b8083526020830192505050908051906020019060200280838360005b838110156122a1578082015181840152602081019050612286565b505050509050016040525050505050505b734ddc2d193948926d02f9b1fe9e1daa0718270ed573ffffffffffffffffffffffffffffffffffffffff16816040015173ffffffffffffffffffffffffffffffffffffffff1614612e7b578060e0015173ffffffffffffffffffffffffffffffffffffffff1663095ea7b3826040015183602001516040518363ffffffff1660e01b8152600401808373ffffffffffffffffffffffffffffffffffffffff1673ffffffffffffffffffffffffffffffffffffffff16815260200182815260200192505050602060405180830381600087803b15801561239057600080fd5b505af11580156123a4573d6000803e3d6000fd5b505050506040513d60208110156123ba57600080fd5b8101908080519060200190929190505050816101a00190151590811515815250508060e0015173ffffffffffffffffffffffffffffffffffffffff1663dd62ed3e3083604001516040518363ffffffff1660e01b8152600401808373ffffffffffffffffffffffffffffffffffffffff1673ffffffffffffffffffffffffffffffffffffffff1681526020018273ffffffffffffffffffffffffffffffffffffffff1673ffffffffffffffffffffffffffffffffffffffff1681526020019250505060206040518083038186803b15801561249457600080fd5b505afa1580156124a8573d6000803e3d6000fd5b505050506040513d60208110156124be57600080fd5b8101908080519060200190929190505050816101c001818152505060008160e0015173ffffffffffffffffffffffffffffffffffffffff166370a08231306040518263ffffffff1660e01b8152600401808273ffffffffffffffffffffffffffffffffffffffff1673ffffffffffffffffffffffffffffffffffffffff16815260200191505060206040518083038186803b15801561255c57600080fd5b505afa158015612570573d6000803e3d6000fd5b505050506040513d602081101561258657600080fd5b810190808051906020019092919050505090507ff845baa4d075b161b43f7fcbe8ca9eb5f2064032d4e19c3060f3c6954514276e826101a00151836101c0015184604001518560e0015185876020015160405180871515151581526020018681526020018573ffffffffffffffffffffffffffffffffffffffff1673ffffffffffffffffffffffffffffffffffffffff1681526020018473ffffffffffffffffffffffffffffffffffffffff1673ffffffffffffffffffffffffffffffffffffffff168152602001838152602001828152602001965050505050505060405180910390a1816040015173ffffffffffffffffffffffffffffffffffffffff1663f5e3c4628360000151846020015185606001516040518463ffffffff1660e01b8152600401808473ffffffffffffffffffffffffffffffffffffffff1673ffffffffffffffffffffffffffffffffffffffff1681526020018381526020018273ffffffffffffffffffffffffffffffffffffffff1673ffffffffffffffffffffffffffffffffffffffff1681526020019350505050602060405180830381600087803b15801561273557600080fd5b505af1158015612749573d6000803e3d6000fd5b505050506040513d602081101561275f57600080fd5b8101908080519060200190929190505050826101200181815250506000826101200151146127f5576040517f08c379a000000000000000000000000000000000000000000000000000000000815260040180806020018281038252601b8152602001807f43616c6c204c69717569646174696f6e204572726f722021212120000000000081525060200191505060405180910390fd5b816060015173ffffffffffffffffffffffffffffffffffffffff166370a08231306040518263ffffffff1660e01b8152600401808273ffffffffffffffffffffffffffffffffffffffff1673ffffffffffffffffffffffffffffffffffffffff16815260200191505060206040518083038186803b15801561287657600080fd5b505afa15801561288a573d6000803e3d6000fd5b505050506040513d60208110156128a057600080fd5b8101908080519060200190929190505050826101600181815250507f2816e632ce51cf139ed2fa08da51728edcf413ee09477ec742fb5650ed98d9848261016001516040518082815260200191505060405180910390a1816060015173ffffffffffffffffffffffffffffffffffffffff1663db006a758361016001516040518263ffffffff1660e01b815260040180828152602001915050602060405180830381600087803b15801561295357600080fd5b505af1158015612967573d6000803e3d6000fd5b505050506040513d602081101561297d57600080fd5b8101908080519060200190929190505050826101800181815250507f3c1f3aa558ded9e980d689710e67bdb73ba9008c4db0b001ef67cb87e0e0e8788261018001516040518082815260200191505060405180910390a1600082610180015114612a4f576040517f08c379a00000000000000000000000000000000000000000000000000000000081526004018080602001828103825260128152602001807f52656465656d20546f6b656e204572726f72000000000000000000000000000081525060200191505060405180910390fd5b734ddc2d193948926d02f9b1fe9e1daa0718270ed573ffffffffffffffffffffffffffffffffffffffff16826060015173ffffffffffffffffffffffffffffffffffffffff161415612b7b57600360009054906101000a900473ffffffffffffffffffffffffffffffffffffffff1673ffffffffffffffffffffffffffffffffffffffff1663ad5c46486040518163ffffffff1660e01b815260040160206040518083038186803b158015612b0357600080fd5b505afa158015612b17573d6000803e3d6000fd5b505050506040513d6020811015612b2d57600080fd5b810190808051906020019092919050505082610200019073ffffffffffffffffffffffffffffffffffffffff16908173ffffffffffffffffffffffffffffffffffffffff1681525050612bba565b81610100015182610200019073ffffffffffffffffffffffffffffffffffffffff16908173ffffffffffffffffffffffffffffffffffffffff16815250505b60606002604051908082528060200260200182016040528015612bec5781602001602082028038833980820191505090505b50905082610200015181600081518110612c0257fe5b602002602001019073ffffffffffffffffffffffffffffffffffffffff16908173ffffffffffffffffffffffffffffffffffffffff16815250508260e0015181600181518110612c4e57fe5b602002602001019073ffffffffffffffffffffffffffffffffffffffff16908173ffffffffffffffffffffffffffffffffffffffff1681525050600360009054906101000a900473ffffffffffffffffffffffffffffffffffffffff1673ffffffffffffffffffffffffffffffffffffffff16637ff36ab53073ffffffffffffffffffffffffffffffffffffffff163160008430612cea61172c565b6040518663ffffffff1660e01b815260040180858152602001806020018473ffffffffffffffffffffffffffffffffffffffff1673ffffffffffffffffffffffffffffffffffffffff168152602001838152602001828103825285818151815260200191508051906020019060200280838360005b83811015612d7a578082015181840152602081019050612d5f565b50505050905001955050505050506000604051808303818588803b158015612da157600080fd5b505af1158015612db5573d6000803e3d6000fd5b50505050506040513d6000823e3d601f19601f820116820180604052506020811015612de057600080fd5b8101908080516040519392919084640100000000821115612e0057600080fd5b83820191506020820185811115612e1657600080fd5b8251866020820283011164010000000082111715612e3357600080fd5b8083526020830192505050908051906020019060200280838360005b83811015612e6a578082015181840152602081019050612e4f565b505050509050016040525050505050505b836000819055506000612e978587612ff390919063ffffffff16565b9050612ea3878261307b565b50505050505050565b6000600160009054906101000a900473ffffffffffffffffffffffffffffffffffffffff16905090565b6000612ee0613124565b73ffffffffffffffffffffffffffffffffffffffff168273ffffffffffffffffffffffffffffffffffffffff161415612f32578273ffffffffffffffffffffffffffffffffffffffff16319050612fed565b8173ffffffffffffffffffffffffffffffffffffffff166370a08231846040518263ffffffff1660e01b8152600401808273ffffffffffffffffffffffffffffffffffffffff1673ffffffffffffffffffffffffffffffffffffffff16815260200191505060206040518083038186803b158015612faf57600080fd5b505afa158015612fc3573d6000803e3d6000fd5b505050506040513d6020811015612fd957600080fd5b810190808051906020019092919050505090505b92915050565b600080828401905083811015613071576040517f08c379a000000000000000000000000000000000000000000000000000000000815260040180806020018281038252601b8152602001807f536166654d6174683a206164646974696f6e206f766572666c6f77000000000081525060200191505060405180910390fd5b8091505092915050565b60007324a42fd28c976a61df5d00d0599c34c4f90748c873ffffffffffffffffffffffffffffffffffffffff1663ed6ff7606040518163ffffffff1660e01b815260040160206040518083038186803b1580156130d757600080fd5b505afa1580156130eb573d6000803e3d6000fd5b505050506040513d602081101561310157600080fd5b8101908080519060200190929190505050905061311f818484613140565b505050565b600073eeeeeeeeeeeeeeeeeeeeeeeeeeeeeeeeeeeeeeee905090565b613148613124565b73ffffffffffffffffffffffffffffffffffffffff168273ffffffffffffffffffffffffffffffffffffffff1614156131e6578273ffffffffffffffffffffffffffffffffffffffff168160405180600001905060006040518083038185875af1925050503d80600081146131d9576040519150601f19603f3d011682016040523d82523d6000602084013e6131de565b606091505b505050613212565b61321183828473ffffffffffffffffffffffffffffffffffffffff166132179092919063ffffffff16565b5b505050565b6132ca8363a9059cbb60e01b8484604051602401808373ffffffffffffffffffffffffffffffffffffffff1673ffffffffffffffffffffffffffffffffffffffff16815260200182815260200192505050604051602081830303815290604052907bffffffffffffffffffffffffffffffffffffffffffffffffffffffff19166020820180517bffffffffffffffffffffffffffffffffffffffffffffffffffffffff83818316178352505050506132cf565b505050565b6132ee8273ffffffffffffffffffffffffffffffffffffffff1661351a565b613360576040517f08c379a000000000000000000000000000000000000000000000000000000000815260040180806020018281038252601f8152602001807f5361666545524332303a2063616c6c20746f206e6f6e2d636f6e74726163740081525060200191505060405180910390fd5b600060608373ffffffffffffffffffffffffffffffffffffffff16836040518082805190602001908083835b602083106133af578051825260208201915060208101905060208303925061338c565b6001836020036101000a0380198251168184511680821785525050505050509050019150506000604051808303816000865af19150503d8060008114613411576040519150601f19603f3d011682016040523d82523d6000602084013e613416565b606091505b50915091508161348e576040517f08c379a00000000000000000000000000000000000000000000000000000000081526004018080602001828103825260208152602001807f5361666545524332303a206c6f772d6c6576656c2063616c6c206661696c656481525060200191505060405180910390fd5b600081511115613514578080602001905160208110156134ad57600080fd5b8101908080519060200190929190505050613513576040517f08c379a000000000000000000000000000000000000000000000000000000000815260040180806020018281038252602a8152602001806136d8602a913960400191505060405180910390fd5b5b50505050565b60008060007fc5d2460186f7233c927e7db2dcc703c0e500b653ca82273b7bfad8045d85a47060001b9050833f91506000801b821415801561355c5750808214155b92505050919050565b604051806102600160405280600073ffffffffffffffffffffffffffffffffffffffff16815260200160008152602001600073ffffffffffffffffffffffffffffffffffffffff168152602001600073ffffffffffffffffffffffffffffffffffffffff168152602001600081526020016000815260200160008152602001600073ffffffffffffffffffffffffffffffffffffffff168152602001600073ffffffffffffffffffffffffffffffffffffffff168152602001600081526020016000815260200160008152602001600081526020016000151581526020016000815260200160008152602001600073ffffffffffffffffffffffffffffffffffffffff168152602001600073ffffffffffffffffffffffffffffffffffffffff168152602001600073ffffffffffffffffffffffffffffffffffffffff168152509056fe496e76616c69642062616c616e63652c207761732074686520666c6173684c6f616e207375636365737366756c3f5361666545524332303a204552433230206f7065726174696f6e20646964206e6f742073756363656564a2646970667358221220e49cec986f9844a2520378386946ba38300c1566d6efda0322edef46715d1ec864736f6c63430006020033",
  "source": "//pragma solidity ^0.5.15;\npragma solidity >=0.6.2;\n\nimport \"./aave/FlashLoanReceiverBase.sol\";\nimport \"./aave/ILendingPoolAddressesProvider.sol\";\nimport \"./aave/ILendingPool.sol\";\nimport \"./openzeppelin/IERC20.sol\";\nimport \"./compound/CTokenInterfaces.sol\";\nimport \"./compound/ComptrollerInterface.sol\";\nimport './uniswap/IUniswapV2Router02.sol';\n\n\ncontract Flashloan is FlashLoanReceiverBase {\n\n\tevent LogConvertTokensToTokensEvent(\n\t\tuint _tokenInAmount,\n\t\taddress _tokenInAddress,\n\t\taddress _tokenOutAddress,\n\t\taddress _to,\n\t\tuint _deadline,\n\t\tuint[] amounts\n\t);\n\n    event ExecuteOpreationEvent( address _reserve, uint256 _amount, uint256 _fee, bytes _params);\n    event GetAccountLiquidity( uint Error, uint liquidity, uint shortfall );\n    event GetUnderlyingAddress(address _underlyingaddress);\n\tevent AccountTokenBalance(bool approveResponse, uint256 allowance, address cTokenRepay, address token,  uint balance, uint repayAmount);\n    event LiquidationEvent(uint _err);\n    event CTokenBalance(uint _balance);\n    event RedeemEvent(uint _redeemError);\n    event convertEthToAnyToken(uint _amount, address _tokensOut, address[] path);\n    \n\n    uint256 public fee;\n    address private _owner;\n    address public treasuryWallet;\n\n    IUniswapV2Router02 public uniswapRouter;\n    ComptrollerInterface public comptroller;\n\n\n\taddress internal constant UNISWAP_ROUTER_ADDRESS = 0x7a250d5630B4cF539739dF2C5dAcb4c659F2488D;\n    address internal constant CETH_ADDRESS = 0x4Ddc2D193948926D02f9B1fE9e1daa0718270ED5;\n    address internal constant ETH_RESERVE_ADDRESS = 0xEeeeeEeeeEeEeeEeEeEeeEEEeeeeEeeeeeeeEEeE;\n\n\n    /**\n     * @dev Throws if called by any account other than the owner.\n     */\n    modifier onlyOwner() {\n        require(_owner == msg.sender, \"Ownable: caller is not the owner\");\n        _;\n    }\n\n     modifier ensureTreasuryWallet() {\n        require(treasuryWallet != address(0), \"There is No Treasury Wallet !!!\");\n        _;\n    }\n\n\n    constructor() public {\n        address msgSender = msg.sender;\n        _owner = msgSender;\n\t\tuniswapRouter = IUniswapV2Router02(UNISWAP_ROUTER_ADDRESS);\n    }\n\n\t// receive() payable external {}\n\n    struct FlashloanLocalVars  {\n\n        address _borrower;\n        uint _repayAmount;\n        address _cTokenRepay;\n        address _cTokenCollateral;\n\n        uint getLiquidityError;\n        uint liquidity;\n        uint shortfall;\n        address underlyingAddress;\n\t\taddress underlyingAddress1; // _cTokenCollateral underlying address\n        \n\t\tuint liquidateBorrowError;\n\t\tuint liquidateBorrowError1;\n\n        uint cTokenBalance;  // ctoken Balance after Liquidation\n        uint redeemErrorCode;\n\n\t\tbool approveResponse;\n\t\tuint256 allowance;\n\n\t\tuint liquidatedAssetBalance;\n\n        address path0;\n        address path1;\n        address path2;\n    }\n    \n    function executeOperation(address _reserve, uint256 _amount, uint256 _fee, bytes calldata _params) external override {\n\n        require(_amount <= getBalanceInternal(address(this), _reserve), \"Invalid balance, was the flashLoan successful?\");\n        \n        FlashloanLocalVars memory vars;\n\n        /* Decode _params */\n        (\n            vars._borrower,\n            vars._repayAmount,\n            vars._cTokenRepay,\n            vars._cTokenCollateral\n\n        ) = abi.decode(_params,(address,uint,address,address));\n\n\n        /* Get Underlying address of cTokenRepay  when cTokenRepay !== cETH */\n        if(vars._cTokenRepay != CETH_ADDRESS) { \n            vars.underlyingAddress = CErc20Storage(vars._cTokenRepay).underlying();\n        }\n        \n        /* Get Underlying address  of colatreal  when _collateral !== cETH  */\n        if(vars._cTokenCollateral != CETH_ADDRESS) {\n            vars.underlyingAddress1 = CErc20Storage(vars._cTokenCollateral).underlying(); \n        }\n\n        \n        \n        if( vars._cTokenRepay == CETH_ADDRESS ) {\n            \n            /* Liquidate call cEth */    \n            uint liquidateBorrowError = CETHInterface(vars._cTokenRepay).liquidateBorrow{value : vars._repayAmount}\n                                            ( vars._borrower, CTokenInterface(vars._cTokenCollateral) );\n            \n            emit LiquidationEvent(liquidateBorrowError);\n            require(vars.liquidateBorrowError == 0, \"Call Liquidation Error 1 !!! \");\n\n            /* 1. Redeem liquidated Tokens !  */\n            \n            /* Get Seized  CToken  Balance */\n            vars.cTokenBalance = CTokenInterface(vars._cTokenCollateral).balanceOf(address(this));\n            emit CTokenBalance(vars.cTokenBalance);\n\n            /* Redeem Liquidated assets From CToken */\t\n            \n            vars.redeemErrorCode = CErc20Interface(vars._cTokenCollateral).redeem(vars.cTokenBalance);\n            emit RedeemEvent(vars.redeemErrorCode);\n            require(vars.redeemErrorCode == 0, \"Redeem Token Error\");\n\n            /* Swap Tokens To Ether !!! */ \n            address[] memory ethPath = new address[](2);\n            ethPath[0] = vars.underlyingAddress1; \n            ethPath[1] = uniswapRouter.WETH();\n\n            uniswapRouter.swapExactTokensForETH(vars.cTokenBalance, 0, ethPath, address(this),  getNow() );\n        }\n        \n\n        if(vars._cTokenRepay != CETH_ADDRESS) { \n\n            vars.approveResponse = IERC20(vars.underlyingAddress).approve(vars._cTokenRepay, vars._repayAmount);\n\t\t    vars.allowance = IERC20(vars.underlyingAddress).allowance(address(this), vars._cTokenRepay);\n\n\t\t    uint tokenBalance = IERC20(vars.underlyingAddress).balanceOf(address(this));\n\t\t    emit AccountTokenBalance(vars.approveResponse, vars.allowance, vars._cTokenRepay, vars.underlyingAddress, tokenBalance, vars._repayAmount);\n\n            // Here Add Approve \n            vars.liquidateBorrowError = \n                CErc20Interface(vars._cTokenRepay)\n                    .liquidateBorrow(vars._borrower,vars._repayAmount,CTokenInterface(vars._cTokenCollateral));\n\n            require(vars.liquidateBorrowError == 0, \"Call Liquidation Error !!! \");\n\n            /* Get CToken Balance */\n            vars.cTokenBalance = CTokenInterface(vars._cTokenCollateral).balanceOf(address(this));\n            emit CTokenBalance(vars.cTokenBalance);\n\n            /* Redeem Liquidated assets From CToken */\t\n            vars.redeemErrorCode = CErc20Interface(vars._cTokenCollateral).redeem(vars.cTokenBalance);\n            emit RedeemEvent(vars.redeemErrorCode);\n            require(vars.redeemErrorCode == 0, \"Redeem Token Error\");\n\n            \n            if(vars._cTokenCollateral == CETH_ADDRESS) {\n                vars.path0 = uniswapRouter.WETH();\n            }else{\n                vars.path0 = vars.underlyingAddress1;\n            }\n\n            address[] memory path = new address[](2);\n            path[0] = vars.path0; // \n            path[1] = vars.underlyingAddress;\n\n\t        // uint[] memory amounts = uniswapRouter.getAmountsOut(msg.value, path);\n\t        uniswapRouter.swapExactETHForTokens{value : address(this).balance}(0, path, address(this), getNow());\n        }\n\n\n\n        fee = _fee;\n        uint totalDebt = _amount.add(_fee);\n        transferFundsBackToPoolInternal(_reserve, totalDebt);\n    }\n\n\n    \n    function flashloan(\n        address _borrower,\n        uint _repayAmount,\n        CTokenInterface _cTokenRepay,\n        CTokenInterface _cTokenCollateral\n    )\n        public onlyOwner\n    {\n\n        /* Encode Passed Data */\n        bytes memory data = abi.encode(_borrower,_repayAmount,_cTokenRepay,_cTokenCollateral);\n        \n\t\t/* Get Underlying Token address Bat, Usdc etc...  */\n        address lendingAsset;\n        if(address(_cTokenRepay) ==  CETH_ADDRESS) {\n            lendingAsset = ETH_RESERVE_ADDRESS;\n        }else{\n            lendingAsset = CErc20Storage(address(_cTokenRepay)).underlying();\n        }\n    \n        ILendingPool lendingPool = ILendingPool(addressesProvider.getLendingPool());\n        lendingPool.flashLoan(address(this), lendingAsset, _repayAmount, data);\n    }\n\n\n\t/* @dev Swap ERC Tokens To Tokens : */\n\n\tfunction convertTokensToTokens(\n\t\tuint _tokenInAmount,\n\t\taddress _tokenInAddress,\n\t\taddress _tokenOutAddress,\n\t\taddress _to,\n\t\tuint _deadline\n\t) public payable {\n\n\t\t/* Approve Router Address !!! */\n\t\tIERC20(_tokenInAddress).approve(UNISWAP_ROUTER_ADDRESS,_tokenInAmount);\n\t\taddress[] memory path = new address[](2);\n\t\t\n        path[0] = _tokenInAddress;\n        path[1] = uniswapRouter.WETH();\n\t\tpath[2] = _tokenOutAddress;\n\n\t\tuint[] memory amounts = uniswapRouter.swapExactTokensForTokens(_tokenInAmount, 0, path, _to, _deadline);\n\n\t\temit LogConvertTokensToTokensEvent(_tokenInAmount,_tokenInAddress,_tokenOutAddress,_to,_deadline, amounts);\n\t}\n\n\n    function setComptroller(ComptrollerInterface _comptroller) public {\n        comptroller = _comptroller;\n    }\n\n\n\tfunction getNow() public view returns (uint _now) {\n\t\t_now = now + 6000; \n\t}\n    \n    function setTreasuryWallet(address _wallet) public onlyOwner {\n        treasuryWallet = _wallet;\n    }\n\n    function getTreasuryWallet() public view returns(address _treasuryWallet) {\n        _treasuryWallet = treasuryWallet;\n    }\n\n    function getowner() public view returns(address ownerAddress) {\n        ownerAddress = _owner;\n    }\n\n    function owner() public view returns (address) {\n        return _owner;\n    }\n\n    function getContractBalance() public view returns(uint) {\n        return address(this).balance;\n    }\n\n    function getContractErc20Balance(address _underlyingAddress) public view returns(address _erc20Address, uint _balance) {\n        _balance =  IERC20(_underlyingAddress).balanceOf(address(this));\n        _erc20Address = _underlyingAddress;\n    } \n\n    \n\tfunction transferAllErc20Tokens(address _erc20address,  address _to) public onlyOwner returns (bool result) {\n        uint erc20Balance = IERC20(_erc20address).balanceOf( address(this) );\n        require(erc20Balance > 0, \"NOT ENOUGH BALANCE\");\n        result = IERC20(_erc20address).transfer(_to, erc20Balance);\n    }\n\n}",
  "sourcePath": "/Users/achiko/Documents/elva/projects/defipools/flashloan-compound/contracts/Flashloan.sol",
  "compiler": {
    "name": "solc",
    "version": "0.6.2+commit.bacdbe57.Emscripten.clang"
  },
  "schemaVersion": "3.2.0",
  "updatedAt": "2020-07-21T15:26:08.826Z",
  "devdoc": {
    "methods": {}
  },
  "userdoc": {
    "methods": {}
  }
}