{
  "contractName": "Flashloan",
  "abi": [
    {
      "inputs": [],
      "stateMutability": "nonpayable",
      "type": "constructor"
    },
    {
      "anonymous": false,
      "inputs": [
        {
          "indexed": false,
          "internalType": "bool",
          "name": "approveResponse",
          "type": "bool"
        },
        {
          "indexed": false,
          "internalType": "uint256",
          "name": "allowance",
          "type": "uint256"
        },
        {
          "indexed": false,
          "internalType": "address",
          "name": "cTokenRepay",
          "type": "address"
        },
        {
          "indexed": false,
          "internalType": "address",
          "name": "token",
          "type": "address"
        },
        {
          "indexed": false,
          "internalType": "uint256",
          "name": "balance",
          "type": "uint256"
        },
        {
          "indexed": false,
          "internalType": "uint256",
          "name": "repayAmount",
          "type": "uint256"
        }
      ],
      "name": "AccountTokenBalance",
      "type": "event"
    },
    {
      "anonymous": false,
      "inputs": [
        {
          "indexed": false,
          "internalType": "uint256",
          "name": "_balance",
          "type": "uint256"
        }
      ],
      "name": "CTokenBalance",
      "type": "event"
    },
    {
      "anonymous": false,
      "inputs": [
        {
          "indexed": false,
          "internalType": "address",
          "name": "_reserve",
          "type": "address"
        },
        {
          "indexed": false,
          "internalType": "uint256",
          "name": "_amount",
          "type": "uint256"
        },
        {
          "indexed": false,
          "internalType": "uint256",
          "name": "_fee",
          "type": "uint256"
        },
        {
          "indexed": false,
          "internalType": "bytes",
          "name": "_params",
          "type": "bytes"
        }
      ],
      "name": "ExecuteOpreationEvent",
      "type": "event"
    },
    {
      "anonymous": false,
      "inputs": [
        {
          "indexed": false,
          "internalType": "uint256",
          "name": "Error",
          "type": "uint256"
        },
        {
          "indexed": false,
          "internalType": "uint256",
          "name": "liquidity",
          "type": "uint256"
        },
        {
          "indexed": false,
          "internalType": "uint256",
          "name": "shortfall",
          "type": "uint256"
        }
      ],
      "name": "GetAccountLiquidity",
      "type": "event"
    },
    {
      "anonymous": false,
      "inputs": [
        {
          "indexed": false,
          "internalType": "address",
          "name": "_underlyingaddress",
          "type": "address"
        }
      ],
      "name": "GetUnderlyingAddress",
      "type": "event"
    },
    {
      "anonymous": false,
      "inputs": [
        {
          "indexed": false,
          "internalType": "uint256",
          "name": "_err",
          "type": "uint256"
        }
      ],
      "name": "LiquidationEvent",
      "type": "event"
    },
    {
      "anonymous": false,
      "inputs": [
        {
          "indexed": false,
          "internalType": "uint256",
          "name": "_tokenInAmount",
          "type": "uint256"
        },
        {
          "indexed": false,
          "internalType": "address",
          "name": "_tokenInAddress",
          "type": "address"
        },
        {
          "indexed": false,
          "internalType": "address",
          "name": "_tokenOutAddress",
          "type": "address"
        },
        {
          "indexed": false,
          "internalType": "address",
          "name": "_to",
          "type": "address"
        },
        {
          "indexed": false,
          "internalType": "uint256",
          "name": "_deadline",
          "type": "uint256"
        },
        {
          "indexed": false,
          "internalType": "uint256[]",
          "name": "amounts",
          "type": "uint256[]"
        }
      ],
      "name": "LogConvertTokensToTokensEvent",
      "type": "event"
    },
    {
      "anonymous": false,
      "inputs": [
        {
          "indexed": false,
          "internalType": "uint256",
          "name": "_redeemError",
          "type": "uint256"
        }
      ],
      "name": "RedeemEvent",
      "type": "event"
    },
    {
      "stateMutability": "payable",
      "type": "fallback"
    },
    {
      "inputs": [],
      "name": "addressesProvider",
      "outputs": [
        {
          "internalType": "contract ILendingPoolAddressesProvider",
          "name": "",
          "type": "address"
        }
      ],
      "stateMutability": "view",
      "type": "function"
    },
    {
      "inputs": [],
      "name": "comptroller",
      "outputs": [
        {
          "internalType": "contract ComptrollerInterface",
          "name": "",
          "type": "address"
        }
      ],
      "stateMutability": "view",
      "type": "function"
    },
    {
      "inputs": [],
      "name": "fee",
      "outputs": [
        {
          "internalType": "uint256",
          "name": "",
          "type": "uint256"
        }
      ],
      "stateMutability": "view",
      "type": "function"
    },
    {
      "inputs": [],
      "name": "owner",
      "outputs": [
        {
          "internalType": "address",
          "name": "",
          "type": "address"
        }
      ],
      "stateMutability": "view",
      "type": "function"
    },
    {
      "inputs": [],
      "name": "uniswapRouter",
      "outputs": [
        {
          "internalType": "contract IUniswapV2Router02",
          "name": "",
          "type": "address"
        }
      ],
      "stateMutability": "view",
      "type": "function"
    },
    {
      "stateMutability": "payable",
      "type": "receive"
    },
    {
      "inputs": [
        {
          "internalType": "address",
          "name": "_reserve",
          "type": "address"
        },
        {
          "internalType": "uint256",
          "name": "_amount",
          "type": "uint256"
        },
        {
          "internalType": "uint256",
          "name": "_fee",
          "type": "uint256"
        },
        {
          "internalType": "bytes",
          "name": "_params",
          "type": "bytes"
        }
      ],
      "name": "executeOperation",
      "outputs": [],
      "stateMutability": "nonpayable",
      "type": "function"
    },
    {
      "inputs": [
        {
          "internalType": "address",
          "name": "_borrower",
          "type": "address"
        },
        {
          "internalType": "uint256",
          "name": "_repayAmount",
          "type": "uint256"
        },
        {
          "internalType": "contract CTokenInterface",
          "name": "_cTokenRepay",
          "type": "address"
        },
        {
          "internalType": "contract CTokenInterface",
          "name": "_cTokenCollateral",
          "type": "address"
        }
      ],
      "name": "flashloan",
      "outputs": [],
      "stateMutability": "nonpayable",
      "type": "function"
    },
    {
      "inputs": [
        {
          "internalType": "uint256",
          "name": "_tokenInAmount",
          "type": "uint256"
        },
        {
          "internalType": "address",
          "name": "_tokenInAddress",
          "type": "address"
        },
        {
          "internalType": "address",
          "name": "_tokenOutAddress",
          "type": "address"
        },
        {
          "internalType": "address",
          "name": "_to",
          "type": "address"
        },
        {
          "internalType": "uint256",
          "name": "_deadline",
          "type": "uint256"
        }
      ],
      "name": "convertTokensToTokens",
      "outputs": [],
      "stateMutability": "payable",
      "type": "function"
    },
    {
      "inputs": [
        {
          "internalType": "contract ComptrollerInterface",
          "name": "_comptroller",
          "type": "address"
        }
      ],
      "name": "setComptroller",
      "outputs": [],
      "stateMutability": "nonpayable",
      "type": "function"
    },
    {
      "inputs": [],
      "name": "getNow",
      "outputs": [
        {
          "internalType": "uint256",
          "name": "_now",
          "type": "uint256"
        }
      ],
      "stateMutability": "view",
      "type": "function"
    }
  ],
  "bytecode": "0x608060405273eeeeeeeeeeeeeeeeeeeeeeeeeeeeeeeeeeeeeeee600360006101000a81548173ffffffffffffffffffffffffffffffffffffffff021916908373ffffffffffffffffffffffffffffffffffffffff16021790555034801561006557600080fd5b5033600160006101000a81548173ffffffffffffffffffffffffffffffffffffffff021916908373ffffffffffffffffffffffffffffffffffffffff160217905550737a250d5630b4cf539739df2c5dacb4c659f2488d600260006101000a81548173ffffffffffffffffffffffffffffffffffffffff021916908373ffffffffffffffffffffffffffffffffffffffff1602179055506123688061010b6000396000f3fe6080604052600436106100955760003560e01c8063ba8e1afa11610059578063ba8e1afa1461028c578063bbe4fd5014610327578063c72c4d1014610352578063ddca3f43146103a9578063ee872558146103d45761009c565b80635fe3b5671461009e578063735de9f7146100f55780637cab941c1461014c5780638bad38dd146101e45780638da5cb5b146102355761009c565b3661009c57005b005b3480156100aa57600080fd5b506100b361048e565b604051808273ffffffffffffffffffffffffffffffffffffffff1673ffffffffffffffffffffffffffffffffffffffff16815260200191505060405180910390f35b34801561010157600080fd5b5061010a6104b4565b604051808273ffffffffffffffffffffffffffffffffffffffff1673ffffffffffffffffffffffffffffffffffffffff16815260200191505060405180910390f35b6101e2600480360360a081101561016257600080fd5b8101908080359060200190929190803573ffffffffffffffffffffffffffffffffffffffff169060200190929190803573ffffffffffffffffffffffffffffffffffffffff169060200190929190803573ffffffffffffffffffffffffffffffffffffffff169060200190929190803590602001909291905050506104da565b005b3480156101f057600080fd5b506102336004803603602081101561020757600080fd5b81019080803573ffffffffffffffffffffffffffffffffffffffff16906020019092919050505061097f565b005b34801561024157600080fd5b5061024a6109c3565b604051808273ffffffffffffffffffffffffffffffffffffffff1673ffffffffffffffffffffffffffffffffffffffff16815260200191505060405180910390f35b34801561029857600080fd5b50610325600480360360808110156102af57600080fd5b81019080803573ffffffffffffffffffffffffffffffffffffffff16906020019092919080359060200190929190803573ffffffffffffffffffffffffffffffffffffffff169060200190929190803573ffffffffffffffffffffffffffffffffffffffff1690602001909291905050506109e9565b005b34801561033357600080fd5b5061033c610d83565b6040518082815260200191505060405180910390f35b34801561035e57600080fd5b50610367610d8f565b604051808273ffffffffffffffffffffffffffffffffffffffff1673ffffffffffffffffffffffffffffffffffffffff16815260200191505060405180910390f35b3480156103b557600080fd5b506103be610da7565b6040518082815260200191505060405180910390f35b3480156103e057600080fd5b5061048c600480360360808110156103f757600080fd5b81019080803573ffffffffffffffffffffffffffffffffffffffff16906020019092919080359060200190929190803590602001909291908035906020019064010000000081111561044857600080fd5b82018360208201111561045a57600080fd5b8035906020019184600183028401116401000000008311171561047c57600080fd5b9091929391929390505050610dad565b005b600460009054906101000a900473ffffffffffffffffffffffffffffffffffffffff1681565b600260009054906101000a900473ffffffffffffffffffffffffffffffffffffffff1681565b8373ffffffffffffffffffffffffffffffffffffffff1663095ea7b3737a250d5630b4cf539739df2c5dacb4c659f2488d876040518363ffffffff1660e01b8152600401808373ffffffffffffffffffffffffffffffffffffffff1673ffffffffffffffffffffffffffffffffffffffff16815260200182815260200192505050602060405180830381600087803b15801561057557600080fd5b505af1158015610589573d6000803e3d6000fd5b505050506040513d602081101561059f57600080fd5b810190808051906020019092919050505050606060026040519080825280602002602001820160405280156105e35781602001602082028038833980820191505090505b50905084816000815181106105f457fe5b602002602001019073ffffffffffffffffffffffffffffffffffffffff16908173ffffffffffffffffffffffffffffffffffffffff1681525050838160018151811061063c57fe5b602002602001019073ffffffffffffffffffffffffffffffffffffffff16908173ffffffffffffffffffffffffffffffffffffffff16815250506060600260009054906101000a900473ffffffffffffffffffffffffffffffffffffffff1673ffffffffffffffffffffffffffffffffffffffff166338ed17398860008588886040518663ffffffff1660e01b815260040180868152602001858152602001806020018473ffffffffffffffffffffffffffffffffffffffff1673ffffffffffffffffffffffffffffffffffffffff168152602001838152602001828103825285818151815260200191508051906020019060200280838360005b83811015610752578082015181840152602081019050610737565b505050509050019650505050505050600060405180830381600087803b15801561077b57600080fd5b505af115801561078f573d6000803e3d6000fd5b505050506040513d6000823e3d601f19601f8201168201806040525060208110156107b957600080fd5b81019080805160405193929190846401000000008211156107d957600080fd5b838201915060208201858111156107ef57600080fd5b825186602082028301116401000000008211171561080c57600080fd5b8083526020830192505050908051906020019060200280838360005b83811015610843578082015181840152602081019050610828565b5050505090500160405250505090507fb3d81fb7e4574902882ae9eb784ebfb16230e90e9753c2de7778fae67b5dfe29878787878786604051808781526020018673ffffffffffffffffffffffffffffffffffffffff1673ffffffffffffffffffffffffffffffffffffffff1681526020018573ffffffffffffffffffffffffffffffffffffffff1673ffffffffffffffffffffffffffffffffffffffff1681526020018473ffffffffffffffffffffffffffffffffffffffff1673ffffffffffffffffffffffffffffffffffffffff16815260200183815260200180602001828103825283818151815260200191508051906020019060200280838360005b8381101561095e578082015181840152602081019050610943565b5050505090500197505050505050505060405180910390a150505050505050565b80600460006101000a81548173ffffffffffffffffffffffffffffffffffffffff021916908373ffffffffffffffffffffffffffffffffffffffff16021790555050565b600160009054906101000a900473ffffffffffffffffffffffffffffffffffffffff1681565b606084848484604051602001808573ffffffffffffffffffffffffffffffffffffffff1673ffffffffffffffffffffffffffffffffffffffff1681526020018481526020018373ffffffffffffffffffffffffffffffffffffffff1673ffffffffffffffffffffffffffffffffffffffff1681526020018273ffffffffffffffffffffffffffffffffffffffff1673ffffffffffffffffffffffffffffffffffffffff16815260200194505050505060405160208183030381529060405290506000734ddc2d193948926d02f9b1fe9e1daa0718270ed573ffffffffffffffffffffffffffffffffffffffff168473ffffffffffffffffffffffffffffffffffffffff161415610b1d57600360009054906101000a900473ffffffffffffffffffffffffffffffffffffffff169050610ba1565b8373ffffffffffffffffffffffffffffffffffffffff16636f307dc36040518163ffffffff1660e01b815260040160206040518083038186803b158015610b6357600080fd5b505afa158015610b77573d6000803e3d6000fd5b505050506040513d6020811015610b8d57600080fd5b810190808051906020019092919050505090505b60007324a42fd28c976a61df5d00d0599c34c4f90748c873ffffffffffffffffffffffffffffffffffffffff16630261bf8b6040518163ffffffff1660e01b815260040160206040518083038186803b158015610bfd57600080fd5b505afa158015610c11573d6000803e3d6000fd5b505050506040513d6020811015610c2757600080fd5b810190808051906020019092919050505090508073ffffffffffffffffffffffffffffffffffffffff16635cffe9de308489876040518563ffffffff1660e01b8152600401808573ffffffffffffffffffffffffffffffffffffffff1673ffffffffffffffffffffffffffffffffffffffff1681526020018473ffffffffffffffffffffffffffffffffffffffff1673ffffffffffffffffffffffffffffffffffffffff16815260200183815260200180602001828103825283818151815260200191508051906020019080838360005b83811015610d13578082015181840152602081019050610cf8565b50505050905090810190601f168015610d405780820380516001836020036101000a031916815260200191505b5095505050505050600060405180830381600087803b158015610d6257600080fd5b505af1158015610d76573d6000803e3d6000fd5b5050505050505050505050565b60006117704201905090565b7324a42fd28c976a61df5d00d0599c34c4f90748c881565b60005481565b610db73086611b5e565b841115610e0f576040517f08c379a000000000000000000000000000000000000000000000000000000000815260040180806020018281038252602e8152602001806122db602e913960400191505060405180910390fd5b610e176121ed565b82826080811015610e2757600080fd5b81019080803573ffffffffffffffffffffffffffffffffffffffff16906020019092919080359060200190929190803573ffffffffffffffffffffffffffffffffffffffff169060200190929190803573ffffffffffffffffffffffffffffffffffffffff169060200190929190505050839350819150809050846000018560200186604001876060018473ffffffffffffffffffffffffffffffffffffffff1673ffffffffffffffffffffffffffffffffffffffff168152508473ffffffffffffffffffffffffffffffffffffffff1673ffffffffffffffffffffffffffffffffffffffff16815250848152508473ffffffffffffffffffffffffffffffffffffffff1673ffffffffffffffffffffffffffffffffffffffff1681525050505050806040015173ffffffffffffffffffffffffffffffffffffffff16636f307dc36040518163ffffffff1660e01b815260040160206040518083038186803b158015610f9357600080fd5b505afa158015610fa7573d6000803e3d6000fd5b505050506040513d6020811015610fbd57600080fd5b81019080805190602001909291905050508160e0019073ffffffffffffffffffffffffffffffffffffffff16908173ffffffffffffffffffffffffffffffffffffffff1681525050734ddc2d193948926d02f9b1fe9e1daa0718270ed573ffffffffffffffffffffffffffffffffffffffff16816060015173ffffffffffffffffffffffffffffffffffffffff161461110e57806060015173ffffffffffffffffffffffffffffffffffffffff16636f307dc36040518163ffffffff1660e01b815260040160206040518083038186803b15801561109a57600080fd5b505afa1580156110ae573d6000803e3d6000fd5b505050506040513d60208110156110c457600080fd5b810190808051906020019092919050505081610100019073ffffffffffffffffffffffffffffffffffffffff16908173ffffffffffffffffffffffffffffffffffffffff16815250505b8060e0015173ffffffffffffffffffffffffffffffffffffffff1663095ea7b3826040015183602001516040518363ffffffff1660e01b8152600401808373ffffffffffffffffffffffffffffffffffffffff1673ffffffffffffffffffffffffffffffffffffffff16815260200182815260200192505050602060405180830381600087803b1580156111a157600080fd5b505af11580156111b5573d6000803e3d6000fd5b505050506040513d60208110156111cb57600080fd5b8101908080519060200190929190505050816101a00190151590811515815250508060e0015173ffffffffffffffffffffffffffffffffffffffff1663dd62ed3e3083604001516040518363ffffffff1660e01b8152600401808373ffffffffffffffffffffffffffffffffffffffff1673ffffffffffffffffffffffffffffffffffffffff1681526020018273ffffffffffffffffffffffffffffffffffffffff1673ffffffffffffffffffffffffffffffffffffffff1681526020019250505060206040518083038186803b1580156112a557600080fd5b505afa1580156112b9573d6000803e3d6000fd5b505050506040513d60208110156112cf57600080fd5b8101908080519060200190929190505050816101c001818152505060008160e0015173ffffffffffffffffffffffffffffffffffffffff166370a08231306040518263ffffffff1660e01b8152600401808273ffffffffffffffffffffffffffffffffffffffff1673ffffffffffffffffffffffffffffffffffffffff16815260200191505060206040518083038186803b15801561136d57600080fd5b505afa158015611381573d6000803e3d6000fd5b505050506040513d602081101561139757600080fd5b810190808051906020019092919050505090507ff845baa4d075b161b43f7fcbe8ca9eb5f2064032d4e19c3060f3c6954514276e826101a00151836101c0015184604001518560e0015185876020015160405180871515151581526020018681526020018573ffffffffffffffffffffffffffffffffffffffff1673ffffffffffffffffffffffffffffffffffffffff1681526020018473ffffffffffffffffffffffffffffffffffffffff1673ffffffffffffffffffffffffffffffffffffffff168152602001838152602001828152602001965050505050505060405180910390a1734ddc2d193948926d02f9b1fe9e1daa0718270ed573ffffffffffffffffffffffffffffffffffffffff16826040015173ffffffffffffffffffffffffffffffffffffffff1614156115d557816040015173ffffffffffffffffffffffffffffffffffffffff16634ed3de5b8360200151846000015185606001516040518463ffffffff1660e01b8152600401808373ffffffffffffffffffffffffffffffffffffffff1673ffffffffffffffffffffffffffffffffffffffff1681526020018273ffffffffffffffffffffffffffffffffffffffff1673ffffffffffffffffffffffffffffffffffffffff168152602001925050506020604051808303818588803b15801561158a57600080fd5b505af115801561159e573d6000803e3d6000fd5b50505050506040513d60208110156115b557600080fd5b8101908080519060200190929190505050826101200181815250506116e6565b816040015173ffffffffffffffffffffffffffffffffffffffff1663f5e3c4628360000151846020015185606001516040518463ffffffff1660e01b8152600401808473ffffffffffffffffffffffffffffffffffffffff1673ffffffffffffffffffffffffffffffffffffffff1681526020018381526020018273ffffffffffffffffffffffffffffffffffffffff1673ffffffffffffffffffffffffffffffffffffffff1681526020019350505050602060405180830381600087803b1580156116a057600080fd5b505af11580156116b4573d6000803e3d6000fd5b505050506040513d60208110156116ca57600080fd5b8101908080519060200190929190505050826101200181815250505b7f8573d5e437e61f10952ead8be46aea771a9c81cb0e7b7af6e35c2dc697c3af6a8261012001516040518082815260200191505060405180910390a160008261012001511461179d576040517f08c379a000000000000000000000000000000000000000000000000000000000815260040180806020018281038252601b8152602001807f43616c6c204c69717569646174696f6e204572726f722021212120000000000081525060200191505060405180910390fd5b816060015173ffffffffffffffffffffffffffffffffffffffff166370a08231306040518263ffffffff1660e01b8152600401808273ffffffffffffffffffffffffffffffffffffffff1673ffffffffffffffffffffffffffffffffffffffff16815260200191505060206040518083038186803b15801561181e57600080fd5b505afa158015611832573d6000803e3d6000fd5b505050506040513d602081101561184857600080fd5b8101908080519060200190929190505050826101600181815250507f2816e632ce51cf139ed2fa08da51728edcf413ee09477ec742fb5650ed98d9848261016001516040518082815260200191505060405180910390a1816060015173ffffffffffffffffffffffffffffffffffffffff1663db006a758361016001516040518263ffffffff1660e01b815260040180828152602001915050602060405180830381600087803b1580156118fb57600080fd5b505af115801561190f573d6000803e3d6000fd5b505050506040513d602081101561192557600080fd5b8101908080519060200190929190505050826101800181815250507f3c1f3aa558ded9e980d689710e67bdb73ba9008c4db0b001ef67cb87e0e0e8788261018001516040518082815260200191505060405180910390a16000826101800151146119f7576040517f08c379a00000000000000000000000000000000000000000000000000000000081526004018080602001828103825260128152602001807f52656465656d20546f6b656e204572726f72000000000000000000000000000081525060200191505060405180910390fd5b734ddc2d193948926d02f9b1fe9e1daa0718270ed573ffffffffffffffffffffffffffffffffffffffff16826060015173ffffffffffffffffffffffffffffffffffffffff1614611b2c5781610100015173ffffffffffffffffffffffffffffffffffffffff166370a08231306040518263ffffffff1660e01b8152600401808273ffffffffffffffffffffffffffffffffffffffff1673ffffffffffffffffffffffffffffffffffffffff16815260200191505060206040518083038186803b158015611ac457600080fd5b505afa158015611ad8573d6000803e3d6000fd5b505050506040513d6020811015611aee57600080fd5b8101908080519060200190929190505050826101e0018181525050611b2b826101e001518361010001518460e0015130611b26610d83565b6104da565b5b846000819055506000611b488688611c7b90919063ffffffff16565b9050611b548882611d03565b5050505050505050565b6000611b68611dac565b73ffffffffffffffffffffffffffffffffffffffff168273ffffffffffffffffffffffffffffffffffffffff161415611bba578273ffffffffffffffffffffffffffffffffffffffff16319050611c75565b8173ffffffffffffffffffffffffffffffffffffffff166370a08231846040518263ffffffff1660e01b8152600401808273ffffffffffffffffffffffffffffffffffffffff1673ffffffffffffffffffffffffffffffffffffffff16815260200191505060206040518083038186803b158015611c3757600080fd5b505afa158015611c4b573d6000803e3d6000fd5b505050506040513d6020811015611c6157600080fd5b810190808051906020019092919050505090505b92915050565b600080828401905083811015611cf9576040517f08c379a000000000000000000000000000000000000000000000000000000000815260040180806020018281038252601b8152602001807f536166654d6174683a206164646974696f6e206f766572666c6f77000000000081525060200191505060405180910390fd5b8091505092915050565b60007324a42fd28c976a61df5d00d0599c34c4f90748c873ffffffffffffffffffffffffffffffffffffffff1663ed6ff7606040518163ffffffff1660e01b815260040160206040518083038186803b158015611d5f57600080fd5b505afa158015611d73573d6000803e3d6000fd5b505050506040513d6020811015611d8957600080fd5b81019080805190602001909291905050509050611da7818484611dc8565b505050565b600073eeeeeeeeeeeeeeeeeeeeeeeeeeeeeeeeeeeeeeee905090565b611dd0611dac565b73ffffffffffffffffffffffffffffffffffffffff168273ffffffffffffffffffffffffffffffffffffffff161415611e6e578273ffffffffffffffffffffffffffffffffffffffff168160405180600001905060006040518083038185875af1925050503d8060008114611e61576040519150601f19603f3d011682016040523d82523d6000602084013e611e66565b606091505b505050611e9a565b611e9983828473ffffffffffffffffffffffffffffffffffffffff16611e9f9092919063ffffffff16565b5b505050565b611f528363a9059cbb60e01b8484604051602401808373ffffffffffffffffffffffffffffffffffffffff1673ffffffffffffffffffffffffffffffffffffffff16815260200182815260200192505050604051602081830303815290604052907bffffffffffffffffffffffffffffffffffffffffffffffffffffffff19166020820180517bffffffffffffffffffffffffffffffffffffffffffffffffffffffff8381831617835250505050611f57565b505050565b611f768273ffffffffffffffffffffffffffffffffffffffff166121a2565b611fe8576040517f08c379a000000000000000000000000000000000000000000000000000000000815260040180806020018281038252601f8152602001807f5361666545524332303a2063616c6c20746f206e6f6e2d636f6e74726163740081525060200191505060405180910390fd5b600060608373ffffffffffffffffffffffffffffffffffffffff16836040518082805190602001908083835b602083106120375780518252602082019150602081019050602083039250612014565b6001836020036101000a0380198251168184511680821785525050505050509050019150506000604051808303816000865af19150503d8060008114612099576040519150601f19603f3d011682016040523d82523d6000602084013e61209e565b606091505b509150915081612116576040517f08c379a00000000000000000000000000000000000000000000000000000000081526004018080602001828103825260208152602001807f5361666545524332303a206c6f772d6c6576656c2063616c6c206661696c656481525060200191505060405180910390fd5b60008151111561219c5780806020019051602081101561213557600080fd5b810190808051906020019092919050505061219b576040517f08c379a000000000000000000000000000000000000000000000000000000000815260040180806020018281038252602a815260200180612309602a913960400191505060405180910390fd5b5b50505050565b60008060007fc5d2460186f7233c927e7db2dcc703c0e500b653ca82273b7bfad8045d85a47060001b9050833f91506000801b82141580156121e45750808214155b92505050919050565b604051806102000160405280600073ffffffffffffffffffffffffffffffffffffffff16815260200160008152602001600073ffffffffffffffffffffffffffffffffffffffff168152602001600073ffffffffffffffffffffffffffffffffffffffff168152602001600081526020016000815260200160008152602001600073ffffffffffffffffffffffffffffffffffffffff168152602001600073ffffffffffffffffffffffffffffffffffffffff168152602001600081526020016000815260200160008152602001600081526020016000151581526020016000815260200160008152509056fe496e76616c69642062616c616e63652c207761732074686520666c6173684c6f616e207375636365737366756c3f5361666545524332303a204552433230206f7065726174696f6e20646964206e6f742073756363656564a26469706673582212204ef348ed18e017a779d7c956ba3ebc88e276b30abf11a83392ecc1a03f0b305164736f6c63430006020033",
  "source": "//pragma solidity ^0.5.15;\npragma solidity >=0.6.2;\n\nimport \"./aave/FlashLoanReceiverBase.sol\";\nimport \"./aave/ILendingPoolAddressesProvider.sol\";\nimport \"./aave/ILendingPool.sol\";\nimport \"./openzeppelin/IERC20.sol\";\nimport \"./compound/CTokenInterfaces.sol\";\nimport \"./compound/ComptrollerInterface.sol\";\nimport './uniswap/IUniswapV2Router02.sol';\n\n\ncontract Flashloan is FlashLoanReceiverBase {\n\n\tevent LogConvertTokensToTokensEvent(\n\t\tuint _tokenInAmount,\n\t\taddress _tokenInAddress,\n\t\taddress _tokenOutAddress,\n\t\taddress _to,\n\t\tuint _deadline,\n\t\tuint[] amounts\n\t);\n\n    event ExecuteOpreationEvent( address _reserve, uint256 _amount, uint256 _fee, bytes _params);\n    event GetAccountLiquidity( uint Error, uint liquidity, uint shortfall );\n    event GetUnderlyingAddress(address _underlyingaddress);\n\n\tevent AccountTokenBalance(bool approveResponse, uint256 allowance, address cTokenRepay, address token,  uint balance, uint repayAmount);\n\n    event LiquidationEvent(uint _err);\n    event CTokenBalance(uint _balance);\n    event RedeemEvent(uint _redeemError);\n    \n\n    uint256 public fee;\n    address public owner;\n\n\taddress internal constant UNISWAP_ROUTER_ADDRESS = 0x7a250d5630B4cF539739dF2C5dAcb4c659F2488D;\n\tIUniswapV2Router02 public uniswapRouter;\n\n    address internal constant CETH_ADDRESS = 0x4Ddc2D193948926D02f9B1fE9e1daa0718270ED5;\n    address internal ethAddressPool = 0xEeeeeEeeeEeEeeEeEeEeeEEEeeeeEeeeeeeeEEeE;\n\n    ComptrollerInterface public comptroller;\n\n    constructor() public {\n        owner = msg.sender;\n\t\tuniswapRouter = IUniswapV2Router02(UNISWAP_ROUTER_ADDRESS);\n    }\n\n\treceive() payable external {}\n\n    struct FlashloanLocalVars  {\n\n        address _borrower;\n        uint _repayAmount;\n        address _cTokenRepay;\n        address _cTokenCollateral;\n\n        uint getLiquidityError;\n        uint liquidity;\n        uint shortfall;\n        address underlyingAddress;\n\t\taddress underlyingAddress1; // _cTokenCollateral underlying address\n        \n\t\tuint liquidateBorrowError;\n\t\tuint liquidateBorrowError1;\n\n        uint cTokenBalance;  // ctoken Balance after Liquidation\n        uint redeemErrorCode;\n\n\t\tbool approveResponse;\n\t\tuint256 allowance;\n\n\t\tuint liquidatedAssetBalance;\n    }\n    \n    function executeOperation(\n        address _reserve,\n        uint256 _amount,\n        uint256 _fee,\n        bytes calldata _params\n    )\n        external override\n    {\n        require(_amount <= getBalanceInternal(address(this), _reserve), \"Invalid balance, was the flashLoan successful?\");\n        //emit ExecuteOpreationEvent(_reserve, _amount, _fee, _params);\n\n        FlashloanLocalVars memory vars;\n\n        /* Decode _params */\n        (\n            vars._borrower,\n            vars._repayAmount,\n            vars._cTokenRepay,\n            vars._cTokenCollateral\n\n        ) = abi.decode(_params,(address,uint,address,address));\n\n        /* Get Account Liqudity Again before Contract Call */\n\t\t/*\n            (vars.getLiquidityError, vars.liquidity, vars.shortfall) = comptroller.getAccountLiquidity(vars._borrower);\n\n            require(vars.getLiquidityError == 0, \"Error getAccountLiquidity Function\");\n            require(vars.liquidity == 0, \"Account is healthy\");\n            require(vars.shortfall != 0, \"Account is healthy\");\n        */\n\n        /* Get Underlying Token address Bat, Usdc etc...  */\n        vars.underlyingAddress = CErc20Storage(vars._cTokenRepay).underlying();\n\n        if(vars._cTokenCollateral != CETH_ADDRESS ) {\n            //require(true == false, \"CETH ADDRES DETECTED CALL Another Liquidation Function !!! \");\n            /* Get Underlying address  of colatreal  when _collateral !== cETH !!! */\n            vars.underlyingAddress1 = CErc20Storage(vars._cTokenCollateral).underlying(); \n        }\n        \n\n        // emit GetUnderlyingAddress(vars.underlyingAddress);\n\t\t// emit GetUnderlyingAddress(vars.underlyingAddress1);\n\n        /* Approve this(address) for underlying token */\n        vars.approveResponse = IERC20(vars.underlyingAddress).approve(vars._cTokenRepay, vars._repayAmount);\n\t\tvars.allowance = IERC20(vars.underlyingAddress).allowance(address(this), vars._cTokenRepay);\n\n\t\tuint tokenBalance = IERC20(vars.underlyingAddress).balanceOf(address(this));\n\t\temit AccountTokenBalance(vars.approveResponse, vars.allowance, vars._cTokenRepay, vars.underlyingAddress, tokenBalance, vars._repayAmount);\n\n        /* Call Comptroller Liquidation */\n\t\t//vars.liquidateBorrowError \n        \n        \n        // uniswapRouter.swapExactETHForTokens{value : msg.value}(0, path, _to, getNow()); //\n\n        if( vars._cTokenRepay == CETH_ADDRESS ) {\n            vars.liquidateBorrowError = CErc20Interface(vars._cTokenRepay).liquidateBorrowEth{value : vars._repayAmount}( vars._borrower, CTokenInterface(vars._cTokenCollateral) );\n        }else{ \n\t\t\n            vars.liquidateBorrowError = CErc20Interface(vars._cTokenRepay).liquidateBorrow(\n                        vars._borrower,\n                        vars._repayAmount,\n                        CTokenInterface(vars._cTokenCollateral)\n                    );\n        }\n\n\n        emit LiquidationEvent(vars.liquidateBorrowError);\n\n        require(vars.liquidateBorrowError == 0, \"Call Liquidation Error !!! \");\n\n        /* Get CToken Balance */\n        vars.cTokenBalance = CTokenInterface(vars._cTokenCollateral).balanceOf(address(this));\n        emit CTokenBalance(vars.cTokenBalance);\n\n        /* Redeem Liquidated assets From CToken */\t\n\t    vars.redeemErrorCode = CErc20Interface(vars._cTokenCollateral).redeem(vars.cTokenBalance);\n        emit RedeemEvent(vars.redeemErrorCode);\n        require(vars.redeemErrorCode == 0, \"Redeem Token Error\");\n\n        /* Start Uniswap Procedure */\n\t\t/* Get luqudated ERC20 balance */\n\t\t\n        if(vars._cTokenCollateral != CETH_ADDRESS ) { \n            /* Swap Liquidated Assets back to borrowed amount to return FlashLoan */\n            vars.liquidatedAssetBalance = IERC20(vars.underlyingAddress1).balanceOf(address(this));\n\t\t    convertTokensToTokens(vars.liquidatedAssetBalance, vars.underlyingAddress1, vars.underlyingAddress, address(this), getNow());\n        } \n        \n        // else {\n        //     address[] memory path = new address[](2);\n        //     path[0] = uniswapRouter.WETH();\n\t    //     path[1] = vars.underlyingAddress;\n        //     uniswapRouter.swapExactETHForTokens{value : address(this).balance}(0, path, address(this), getNow());\n        // }\n\n        // Time to transfer the funds back\n        fee = _fee;\n        \n        uint totalDebt = _amount.add(_fee);\n        transferFundsBackToPoolInternal(_reserve, totalDebt);\n    }\n\n    \n    function flashloan(\n        address _borrower,\n        uint _repayAmount,\n        CTokenInterface _cTokenRepay,\n        CTokenInterface _cTokenCollateral\n    )\n        public\n    {\n\n        /* Encode Passed Data */\n        bytes memory data = abi.encode(_borrower,_repayAmount,_cTokenRepay,_cTokenCollateral);\n        \n\t\t/* Get Underlying Token address Bat, Usdc etc...  */\n        address underlyingAddress;\n\n        if(address(_cTokenRepay) ==  CETH_ADDRESS) {\n            underlyingAddress = ethAddressPool;\n        }else{\n            underlyingAddress = CErc20Storage(address(_cTokenRepay)).underlying();\n        }\n    \n        ILendingPool lendingPool = ILendingPool(addressesProvider.getLendingPool());\n        lendingPool.flashLoan(address(this), underlyingAddress, _repayAmount, data);\n    }\n\n\n\t/* @dev Swap ERC Tokens To Tokens : */\n\tfunction convertTokensToTokens(\n\t\tuint _tokenInAmount,\n\t\taddress _tokenInAddress,\n\t\taddress _tokenOutAddress,\n\t\taddress _to,\n\t\tuint _deadline\n\t) public payable {\n\n\t\t/* Approve Router Address !!! */\n\t\tIERC20(_tokenInAddress).approve(UNISWAP_ROUTER_ADDRESS,_tokenInAmount);\n\t\taddress[] memory path = new address[](2);\n\t\tpath[0] = _tokenInAddress;\n\t\tpath[1] = _tokenOutAddress;\n\t\tuint[] memory amounts = uniswapRouter.swapExactTokensForTokens(_tokenInAmount, 0, path, _to, _deadline);\n\n\t\temit LogConvertTokensToTokensEvent(_tokenInAmount,_tokenInAddress,_tokenOutAddress,_to, _deadline, amounts);\n\t}\n\n\n    // function convertETHtoAnyToken(address _tokensOut, address _to) public payable {\n\t\t\n\t// \taddress[] memory path = new address[](2);\n\t// \tpath[0] = uniswapRouter.WETH();\n\t// \tpath[1] = _tokensOut;\n\n\t// \tuint[] memory amounts = uniswapRouter.getAmountsOut(msg.value, path);\n\n\t// \tuniswapRouter.swapExactETHForTokens{value : msg.value}(0, path, _to, getNow());\n\t// \t//emit convertEthToAnyToken(_amount, _tokensOut, path);\n\t// }\n\n    function setComptroller(ComptrollerInterface _comptroller) public {\n        comptroller = _comptroller;\n    }\n\n\tfunction getNow() public view returns (uint _now) {\n\t\t_now = now + 6000; // \n\t}\n\n\n\n\t/*\n        function getContractBalance() public returns\n        function getContractErc20Balance() public returns\n        function  transferTokens(_toAddress)\n\t*/\n\n}",
  "sourcePath": "/Users/achiko/Documents/elva/projects/defipools/flashloan-compound/contracts/Flashloan.sol",
  "compiler": {
    "name": "solc",
    "version": "0.6.2+commit.bacdbe57.Emscripten.clang"
  },
  "schemaVersion": "3.2.0",
  "updatedAt": "2020-07-12T10:34:49.463Z",
  "devdoc": {
    "methods": {}
  },
  "userdoc": {
    "methods": {}
  }
}