{
  "contractName": "FlashloanUSDC",
  "abi": [
    {
      "inputs": [],
      "stateMutability": "nonpayable",
      "type": "constructor"
    },
    {
      "stateMutability": "payable",
      "type": "fallback"
    },
    {
      "inputs": [],
      "name": "addressesProvider",
      "outputs": [
        {
          "internalType": "contract ILendingPoolAddressesProvider",
          "name": "",
          "type": "address"
        }
      ],
      "stateMutability": "view",
      "type": "function"
    },
    {
      "inputs": [],
      "name": "comptroller",
      "outputs": [
        {
          "internalType": "contract ComptrollerInterface",
          "name": "",
          "type": "address"
        }
      ],
      "stateMutability": "view",
      "type": "function"
    },
    {
      "inputs": [],
      "name": "fee",
      "outputs": [
        {
          "internalType": "uint256",
          "name": "",
          "type": "uint256"
        }
      ],
      "stateMutability": "view",
      "type": "function"
    },
    {
      "inputs": [],
      "name": "treasuryWallet",
      "outputs": [
        {
          "internalType": "address",
          "name": "",
          "type": "address"
        }
      ],
      "stateMutability": "view",
      "type": "function"
    },
    {
      "inputs": [],
      "name": "uniswapRouter",
      "outputs": [
        {
          "internalType": "contract IUniswapV2Router02",
          "name": "",
          "type": "address"
        }
      ],
      "stateMutability": "view",
      "type": "function"
    },
    {
      "inputs": [
        {
          "internalType": "address",
          "name": "_reserve",
          "type": "address"
        },
        {
          "internalType": "uint256",
          "name": "_amount",
          "type": "uint256"
        },
        {
          "internalType": "uint256",
          "name": "_fee",
          "type": "uint256"
        },
        {
          "internalType": "bytes",
          "name": "_params",
          "type": "bytes"
        }
      ],
      "name": "executeOperation",
      "outputs": [],
      "stateMutability": "nonpayable",
      "type": "function"
    },
    {
      "inputs": [
        {
          "internalType": "address",
          "name": "_borrower",
          "type": "address"
        },
        {
          "internalType": "uint256",
          "name": "_repayAmount",
          "type": "uint256"
        },
        {
          "internalType": "contract CTokenInterface",
          "name": "_cTokenRepay",
          "type": "address"
        },
        {
          "internalType": "contract CTokenInterface",
          "name": "_cTokenCollateral",
          "type": "address"
        }
      ],
      "name": "flashloan",
      "outputs": [],
      "stateMutability": "nonpayable",
      "type": "function"
    },
    {
      "inputs": [
        {
          "internalType": "contract ComptrollerInterface",
          "name": "_comptroller",
          "type": "address"
        }
      ],
      "name": "setComptroller",
      "outputs": [],
      "stateMutability": "nonpayable",
      "type": "function"
    },
    {
      "inputs": [],
      "name": "getNow",
      "outputs": [
        {
          "internalType": "uint256",
          "name": "_now",
          "type": "uint256"
        }
      ],
      "stateMutability": "view",
      "type": "function"
    },
    {
      "inputs": [
        {
          "internalType": "address",
          "name": "_wallet",
          "type": "address"
        }
      ],
      "name": "setTreasuryWallet",
      "outputs": [],
      "stateMutability": "nonpayable",
      "type": "function"
    },
    {
      "inputs": [],
      "name": "getTreasuryWallet",
      "outputs": [
        {
          "internalType": "address",
          "name": "_treasuryWallet",
          "type": "address"
        }
      ],
      "stateMutability": "view",
      "type": "function"
    },
    {
      "inputs": [],
      "name": "getowner",
      "outputs": [
        {
          "internalType": "address",
          "name": "ownerAddress",
          "type": "address"
        }
      ],
      "stateMutability": "view",
      "type": "function"
    },
    {
      "inputs": [],
      "name": "owner",
      "outputs": [
        {
          "internalType": "address",
          "name": "",
          "type": "address"
        }
      ],
      "stateMutability": "view",
      "type": "function"
    },
    {
      "inputs": [],
      "name": "getContractBalance",
      "outputs": [
        {
          "internalType": "uint256",
          "name": "",
          "type": "uint256"
        }
      ],
      "stateMutability": "view",
      "type": "function"
    },
    {
      "inputs": [
        {
          "internalType": "address",
          "name": "_underlyingAddress",
          "type": "address"
        }
      ],
      "name": "getContractErc20Balance",
      "outputs": [
        {
          "internalType": "address",
          "name": "_erc20Address",
          "type": "address"
        },
        {
          "internalType": "uint256",
          "name": "_balance",
          "type": "uint256"
        }
      ],
      "stateMutability": "view",
      "type": "function"
    },
    {
      "inputs": [
        {
          "internalType": "address",
          "name": "_erc20address",
          "type": "address"
        },
        {
          "internalType": "address",
          "name": "_to",
          "type": "address"
        }
      ],
      "name": "transferAllErc20Tokens",
      "outputs": [
        {
          "internalType": "bool",
          "name": "result",
          "type": "bool"
        }
      ],
      "stateMutability": "nonpayable",
      "type": "function"
    }
  ],
  "bytecode": "0x608060405234801561001057600080fd5b50600033905080600160006101000a81548173ffffffffffffffffffffffffffffffffffffffff021916908373ffffffffffffffffffffffffffffffffffffffff16021790555050612213806100676000396000f3fe6080604052600436106100f75760003560e01c80638da5cb5b1161008a578063c72c4d1011610059578063c72c4d1014610561578063ddca3f43146105b8578063ee872558146105e3578063fe0174bd1461069d576100f8565b80638da5cb5b146103f3578063a8602fea1461044a578063ba8e1afa1461049b578063bbe4fd5014610536576100f8565b80636eccaeb5116100c65780636eccaeb5146102975780636f9fb98a14610320578063735de9f71461034b5780638bad38dd146103a2576100f8565b80632c035b74146100fa5780634626402b146101515780634f7e414f146101a85780635fe3b56714610240576100f8565b5b005b34801561010657600080fd5b5061010f6106f4565b604051808273ffffffffffffffffffffffffffffffffffffffff1673ffffffffffffffffffffffffffffffffffffffff16815260200191505060405180910390f35b34801561015d57600080fd5b5061016661071e565b604051808273ffffffffffffffffffffffffffffffffffffffff1673ffffffffffffffffffffffffffffffffffffffff16815260200191505060405180910390f35b3480156101b457600080fd5b506101f7600480360360208110156101cb57600080fd5b81019080803573ffffffffffffffffffffffffffffffffffffffff169060200190929190505050610744565b604051808373ffffffffffffffffffffffffffffffffffffffff1673ffffffffffffffffffffffffffffffffffffffff1681526020018281526020019250505060405180910390f35b34801561024c57600080fd5b50610255610809565b604051808273ffffffffffffffffffffffffffffffffffffffff1673ffffffffffffffffffffffffffffffffffffffff16815260200191505060405180910390f35b3480156102a357600080fd5b50610306600480360360408110156102ba57600080fd5b81019080803573ffffffffffffffffffffffffffffffffffffffff169060200190929190803573ffffffffffffffffffffffffffffffffffffffff16906020019092919050505061082f565b604051808215151515815260200191505060405180910390f35b34801561032c57600080fd5b50610335610af1565b6040518082815260200191505060405180910390f35b34801561035757600080fd5b50610360610b10565b604051808273ffffffffffffffffffffffffffffffffffffffff1673ffffffffffffffffffffffffffffffffffffffff16815260200191505060405180910390f35b3480156103ae57600080fd5b506103f1600480360360208110156103c557600080fd5b81019080803573ffffffffffffffffffffffffffffffffffffffff169060200190929190505050610b36565b005b3480156103ff57600080fd5b50610408610b7a565b604051808273ffffffffffffffffffffffffffffffffffffffff1673ffffffffffffffffffffffffffffffffffffffff16815260200191505060405180910390f35b34801561045657600080fd5b506104996004803603602081101561046d57600080fd5b81019080803573ffffffffffffffffffffffffffffffffffffffff169060200190929190505050610ba4565b005b3480156104a757600080fd5b50610534600480360360808110156104be57600080fd5b81019080803573ffffffffffffffffffffffffffffffffffffffff16906020019092919080359060200190929190803573ffffffffffffffffffffffffffffffffffffffff169060200190929190803573ffffffffffffffffffffffffffffffffffffffff169060200190929190505050610cab565b005b34801561054257600080fd5b5061054b611095565b6040518082815260200191505060405180910390f35b34801561056d57600080fd5b506105766110a1565b604051808273ffffffffffffffffffffffffffffffffffffffff1673ffffffffffffffffffffffffffffffffffffffff16815260200191505060405180910390f35b3480156105c457600080fd5b506105cd6110b9565b6040518082815260200191505060405180910390f35b3480156105ef57600080fd5b5061069b6004803603608081101561060657600080fd5b81019080803573ffffffffffffffffffffffffffffffffffffffff16906020019092919080359060200190929190803590602001909291908035906020019064010000000081111561065757600080fd5b82018360208201111561066957600080fd5b8035906020019184600183028401116401000000008311171561068b57600080fd5b90919293919293905050506110bf565b005b3480156106a957600080fd5b506106b26119dc565b604051808273ffffffffffffffffffffffffffffffffffffffff1673ffffffffffffffffffffffffffffffffffffffff16815260200191505060405180910390f35b6000600260009054906101000a900473ffffffffffffffffffffffffffffffffffffffff16905090565b600260009054906101000a900473ffffffffffffffffffffffffffffffffffffffff1681565b6000808273ffffffffffffffffffffffffffffffffffffffff166370a08231306040518263ffffffff1660e01b8152600401808273ffffffffffffffffffffffffffffffffffffffff1673ffffffffffffffffffffffffffffffffffffffff16815260200191505060206040518083038186803b1580156107c457600080fd5b505afa1580156107d8573d6000803e3d6000fd5b505050506040513d60208110156107ee57600080fd5b81019080805190602001909291905050509050829150915091565b600460009054906101000a900473ffffffffffffffffffffffffffffffffffffffff1681565b60003373ffffffffffffffffffffffffffffffffffffffff16600160009054906101000a900473ffffffffffffffffffffffffffffffffffffffff1673ffffffffffffffffffffffffffffffffffffffff16146108f4576040517f08c379a00000000000000000000000000000000000000000000000000000000081526004018080602001828103825260208152602001807f4f776e61626c653a2063616c6c6572206973206e6f7420746865206f776e657281525060200191505060405180910390fd5b60008373ffffffffffffffffffffffffffffffffffffffff166370a08231306040518263ffffffff1660e01b8152600401808273ffffffffffffffffffffffffffffffffffffffff1673ffffffffffffffffffffffffffffffffffffffff16815260200191505060206040518083038186803b15801561097357600080fd5b505afa158015610987573d6000803e3d6000fd5b505050506040513d602081101561099d57600080fd5b8101908080519060200190929190505050905060008111610a26576040517f08c379a00000000000000000000000000000000000000000000000000000000081526004018080602001828103825260128152602001807f4e4f5420454e4f5547482042414c414e4345000000000000000000000000000081525060200191505060405180910390fd5b8373ffffffffffffffffffffffffffffffffffffffff1663a9059cbb84836040518363ffffffff1660e01b8152600401808373ffffffffffffffffffffffffffffffffffffffff1673ffffffffffffffffffffffffffffffffffffffff16815260200182815260200192505050602060405180830381600087803b158015610aad57600080fd5b505af1158015610ac1573d6000803e3d6000fd5b505050506040513d6020811015610ad757600080fd5b810190808051906020019092919050505091505092915050565b60003073ffffffffffffffffffffffffffffffffffffffff1631905090565b600360009054906101000a900473ffffffffffffffffffffffffffffffffffffffff1681565b80600460006101000a81548173ffffffffffffffffffffffffffffffffffffffff021916908373ffffffffffffffffffffffffffffffffffffffff16021790555050565b6000600160009054906101000a900473ffffffffffffffffffffffffffffffffffffffff16905090565b3373ffffffffffffffffffffffffffffffffffffffff16600160009054906101000a900473ffffffffffffffffffffffffffffffffffffffff1673ffffffffffffffffffffffffffffffffffffffff1614610c67576040517f08c379a00000000000000000000000000000000000000000000000000000000081526004018080602001828103825260208152602001807f4f776e61626c653a2063616c6c6572206973206e6f7420746865206f776e657281525060200191505060405180910390fd5b80600260006101000a81548173ffffffffffffffffffffffffffffffffffffffff021916908373ffffffffffffffffffffffffffffffffffffffff16021790555050565b3373ffffffffffffffffffffffffffffffffffffffff16600160009054906101000a900473ffffffffffffffffffffffffffffffffffffffff1673ffffffffffffffffffffffffffffffffffffffff1614610d6e576040517f08c379a00000000000000000000000000000000000000000000000000000000081526004018080602001828103825260208152602001807f4f776e61626c653a2063616c6c6572206973206e6f7420746865206f776e657281525060200191505060405180910390fd5b606084848484604051602001808573ffffffffffffffffffffffffffffffffffffffff1673ffffffffffffffffffffffffffffffffffffffff1681526020018481526020018373ffffffffffffffffffffffffffffffffffffffff1673ffffffffffffffffffffffffffffffffffffffff1681526020018273ffffffffffffffffffffffffffffffffffffffff1673ffffffffffffffffffffffffffffffffffffffff168152602001945050505050604051602081830303815290604052905060008373ffffffffffffffffffffffffffffffffffffffff16636f307dc36040518163ffffffff1660e01b815260040160206040518083038186803b158015610e7657600080fd5b505afa158015610e8a573d6000803e3d6000fd5b505050506040513d6020811015610ea057600080fd5b8101908080519060200190929190505050905060007324a42fd28c976a61df5d00d0599c34c4f90748c873ffffffffffffffffffffffffffffffffffffffff16630261bf8b6040518163ffffffff1660e01b815260040160206040518083038186803b158015610f0f57600080fd5b505afa158015610f23573d6000803e3d6000fd5b505050506040513d6020811015610f3957600080fd5b810190808051906020019092919050505090508073ffffffffffffffffffffffffffffffffffffffff16635cffe9de308489876040518563ffffffff1660e01b8152600401808573ffffffffffffffffffffffffffffffffffffffff1673ffffffffffffffffffffffffffffffffffffffff1681526020018473ffffffffffffffffffffffffffffffffffffffff1673ffffffffffffffffffffffffffffffffffffffff16815260200183815260200180602001828103825283818151815260200191508051906020019080838360005b8381101561102557808201518184015260208101905061100a565b50505050905090810190601f1680156110525780820380516001836020036101000a031916815260200191505b5095505050505050600060405180830381600087803b15801561107457600080fd5b505af1158015611088573d6000803e3d6000fd5b5050505050505050505050565b60006117704201905090565b7324a42fd28c976a61df5d00d0599c34c4f90748c881565b60005481565b6110c93086611a06565b841115611121576040517f08c379a000000000000000000000000000000000000000000000000000000000815260040180806020018281038252602e815260200180612186602e913960400191505060405180910390fd5b611129612095565b8282608081101561113957600080fd5b81019080803573ffffffffffffffffffffffffffffffffffffffff16906020019092919080359060200190929190803573ffffffffffffffffffffffffffffffffffffffff169060200190929190803573ffffffffffffffffffffffffffffffffffffffff169060200190929190505050839350819150809050846000018560200186604001876060018473ffffffffffffffffffffffffffffffffffffffff1673ffffffffffffffffffffffffffffffffffffffff168152508473ffffffffffffffffffffffffffffffffffffffff1673ffffffffffffffffffffffffffffffffffffffff16815250848152508473ffffffffffffffffffffffffffffffffffffffff1673ffffffffffffffffffffffffffffffffffffffff1681525050505050806040015173ffffffffffffffffffffffffffffffffffffffff16636f307dc36040518163ffffffff1660e01b815260040160206040518083038186803b1580156112a557600080fd5b505afa1580156112b9573d6000803e3d6000fd5b505050506040513d60208110156112cf57600080fd5b8101908080519060200190929190505050816080019073ffffffffffffffffffffffffffffffffffffffff16908173ffffffffffffffffffffffffffffffffffffffff168152505080608001518160a0019073ffffffffffffffffffffffffffffffffffffffff16908173ffffffffffffffffffffffffffffffffffffffff16815250508060a0015173ffffffffffffffffffffffffffffffffffffffff1663095ea7b3826040015183602001516040518363ffffffff1660e01b8152600401808373ffffffffffffffffffffffffffffffffffffffff1673ffffffffffffffffffffffffffffffffffffffff16815260200182815260200192505050602060405180830381600087803b1580156113e657600080fd5b505af11580156113fa573d6000803e3d6000fd5b505050506040513d602081101561141057600080fd5b81019080805190602001909291905050508160c00190151590811515815250508060a0015173ffffffffffffffffffffffffffffffffffffffff1663dd62ed3e3083604001516040518363ffffffff1660e01b8152600401808373ffffffffffffffffffffffffffffffffffffffff1673ffffffffffffffffffffffffffffffffffffffff1681526020018273ffffffffffffffffffffffffffffffffffffffff1673ffffffffffffffffffffffffffffffffffffffff1681526020019250505060206040518083038186803b1580156114e957600080fd5b505afa1580156114fd573d6000803e3d6000fd5b505050506040513d602081101561151357600080fd5b81019080805190602001909291905050508160e001818152505060008160a0015173ffffffffffffffffffffffffffffffffffffffff166370a08231306040518263ffffffff1660e01b8152600401808273ffffffffffffffffffffffffffffffffffffffff1673ffffffffffffffffffffffffffffffffffffffff16815260200191505060206040518083038186803b1580156115b057600080fd5b505afa1580156115c4573d6000803e3d6000fd5b505050506040513d60208110156115da57600080fd5b81019080805190602001909291905050509050816040015182610100019073ffffffffffffffffffffffffffffffffffffffff16908173ffffffffffffffffffffffffffffffffffffffff168152505081610100015173ffffffffffffffffffffffffffffffffffffffff1663f5e3c4628360000151846020015185606001516040518463ffffffff1660e01b8152600401808473ffffffffffffffffffffffffffffffffffffffff1673ffffffffffffffffffffffffffffffffffffffff1681526020018381526020018273ffffffffffffffffffffffffffffffffffffffff1673ffffffffffffffffffffffffffffffffffffffff1681526020019350505050602060405180830381600087803b1580156116f657600080fd5b505af115801561170a573d6000803e3d6000fd5b505050506040513d602081101561172057600080fd5b8101908080519060200190929190505050826101200181815250506000826101200151146117b6576040517f08c379a000000000000000000000000000000000000000000000000000000000815260040180806020018281038252601b8152602001807f43616c6c204c69717569646174696f6e204572726f722021212120000000000081525060200191505060405180910390fd5b816060015173ffffffffffffffffffffffffffffffffffffffff166370a08231306040518263ffffffff1660e01b8152600401808273ffffffffffffffffffffffffffffffffffffffff1673ffffffffffffffffffffffffffffffffffffffff16815260200191505060206040518083038186803b15801561183757600080fd5b505afa15801561184b573d6000803e3d6000fd5b505050506040513d602081101561186157600080fd5b810190808051906020019092919050505082610140018181525050816060015173ffffffffffffffffffffffffffffffffffffffff1663db006a758361014001516040518263ffffffff1660e01b815260040180828152602001915050602060405180830381600087803b1580156118d857600080fd5b505af11580156118ec573d6000803e3d6000fd5b505050506040513d602081101561190257600080fd5b810190808051906020019092919050505082610160018181525050600082610160015114611998576040517f08c379a00000000000000000000000000000000000000000000000000000000081526004018080602001828103825260128152602001807f52656465656d20546f6b656e204572726f72000000000000000000000000000081525060200191505060405180910390fd5b8460008190555060006119b48688611b2390919063ffffffff16565b90506001836101800190151590811515815250506119d28882611bab565b5050505050505050565b6000600160009054906101000a900473ffffffffffffffffffffffffffffffffffffffff16905090565b6000611a10611c54565b73ffffffffffffffffffffffffffffffffffffffff168273ffffffffffffffffffffffffffffffffffffffff161415611a62578273ffffffffffffffffffffffffffffffffffffffff16319050611b1d565b8173ffffffffffffffffffffffffffffffffffffffff166370a08231846040518263ffffffff1660e01b8152600401808273ffffffffffffffffffffffffffffffffffffffff1673ffffffffffffffffffffffffffffffffffffffff16815260200191505060206040518083038186803b158015611adf57600080fd5b505afa158015611af3573d6000803e3d6000fd5b505050506040513d6020811015611b0957600080fd5b810190808051906020019092919050505090505b92915050565b600080828401905083811015611ba1576040517f08c379a000000000000000000000000000000000000000000000000000000000815260040180806020018281038252601b8152602001807f536166654d6174683a206164646974696f6e206f766572666c6f77000000000081525060200191505060405180910390fd5b8091505092915050565b60007324a42fd28c976a61df5d00d0599c34c4f90748c873ffffffffffffffffffffffffffffffffffffffff1663ed6ff7606040518163ffffffff1660e01b815260040160206040518083038186803b158015611c0757600080fd5b505afa158015611c1b573d6000803e3d6000fd5b505050506040513d6020811015611c3157600080fd5b81019080805190602001909291905050509050611c4f818484611c70565b505050565b600073eeeeeeeeeeeeeeeeeeeeeeeeeeeeeeeeeeeeeeee905090565b611c78611c54565b73ffffffffffffffffffffffffffffffffffffffff168273ffffffffffffffffffffffffffffffffffffffff161415611d16578273ffffffffffffffffffffffffffffffffffffffff168160405180600001905060006040518083038185875af1925050503d8060008114611d09576040519150601f19603f3d011682016040523d82523d6000602084013e611d0e565b606091505b505050611d42565b611d4183828473ffffffffffffffffffffffffffffffffffffffff16611d479092919063ffffffff16565b5b505050565b611dfa8363a9059cbb60e01b8484604051602401808373ffffffffffffffffffffffffffffffffffffffff1673ffffffffffffffffffffffffffffffffffffffff16815260200182815260200192505050604051602081830303815290604052907bffffffffffffffffffffffffffffffffffffffffffffffffffffffff19166020820180517bffffffffffffffffffffffffffffffffffffffffffffffffffffffff8381831617835250505050611dff565b505050565b611e1e8273ffffffffffffffffffffffffffffffffffffffff1661204a565b611e90576040517f08c379a000000000000000000000000000000000000000000000000000000000815260040180806020018281038252601f8152602001807f5361666545524332303a2063616c6c20746f206e6f6e2d636f6e74726163740081525060200191505060405180910390fd5b600060608373ffffffffffffffffffffffffffffffffffffffff16836040518082805190602001908083835b60208310611edf5780518252602082019150602081019050602083039250611ebc565b6001836020036101000a0380198251168184511680821785525050505050509050019150506000604051808303816000865af19150503d8060008114611f41576040519150601f19603f3d011682016040523d82523d6000602084013e611f46565b606091505b509150915081611fbe576040517f08c379a00000000000000000000000000000000000000000000000000000000081526004018080602001828103825260208152602001807f5361666545524332303a206c6f772d6c6576656c2063616c6c206661696c656481525060200191505060405180910390fd5b60008151111561204457808060200190516020811015611fdd57600080fd5b8101908080519060200190929190505050612043576040517f08c379a000000000000000000000000000000000000000000000000000000000815260040180806020018281038252602a8152602001806121b4602a913960400191505060405180910390fd5b5b50505050565b60008060007fc5d2460186f7233c927e7db2dcc703c0e500b653ca82273b7bfad8045d85a47060001b9050833f91506000801b821415801561208c5750808214155b92505050919050565b604051806101a00160405280600073ffffffffffffffffffffffffffffffffffffffff16815260200160008152602001600073ffffffffffffffffffffffffffffffffffffffff168152602001600073ffffffffffffffffffffffffffffffffffffffff168152602001600073ffffffffffffffffffffffffffffffffffffffff168152602001600073ffffffffffffffffffffffffffffffffffffffff16815260200160001515815260200160008152602001600073ffffffffffffffffffffffffffffffffffffffff168152602001600081526020016000815260200160008152602001600015158152509056fe496e76616c69642062616c616e63652c207761732074686520666c6173684c6f616e207375636365737366756c3f5361666545524332303a204552433230206f7065726174696f6e20646964206e6f742073756363656564a2646970667358221220dd18c6a39b9c4e6ba1027272fe207d060f04123b611478d600dd81f2692d435764736f6c63430006020033",
  "source": "pragma solidity >=0.6.2;\n\nimport \"./aave/FlashLoanReceiverBase.sol\";\nimport \"./aave/ILendingPoolAddressesProvider.sol\";\nimport \"./aave/ILendingPool.sol\";\nimport \"./openzeppelin/IERC20.sol\";\nimport \"./compound/CTokenInterfaces.sol\";\nimport \"./compound/ComptrollerInterface.sol\";\nimport \"./uniswap/IUniswapV2Router02.sol\";\n\ncontract FlashloanUSDC is FlashLoanReceiverBase {\n    uint256 public fee;\n    address private _owner;\n    address public treasuryWallet;\n\n    IUniswapV2Router02 public uniswapRouter;\n    ComptrollerInterface public comptroller;\n\n    /**\n     * @dev Throws if called by any account other than the owner.\n     */\n    modifier onlyOwner() {\n        require(_owner == msg.sender, \"Ownable: caller is not the owner\");\n        _;\n    }\n\n    constructor() public {\n        address msgSender = msg.sender;\n        _owner = msgSender;\n    }\n\n    // receive() payable external {}\n\n    struct FlashloanLocalVars {\n        address _borrower;\n        uint256 _repayAmount;\n        address _cTokenRepay;\n        address _cTokenCollateral;\n\n        address _underlyingAddress;\n        IERC20 _underlyingContract; // underlying contract\n        bool _approveResponse;\n        uint256 _allowance;\n        CErc20Interface _cTokenRepayContract;\n        uint256 _liquidateBorrowError;\n\n        uint256 _cTokenBalanceAfterLiquidation;\n        uint256 _redeemErrorCode;\n\n        bool _break;\n    }\n\n    function executeOperation(\n        address _reserve,\n        uint256 _amount,\n        uint256 _fee,\n        bytes calldata _params\n    ) external override {\n        require(\n            _amount <= getBalanceInternal(address(this), _reserve),\n            \"Invalid balance, was the flashLoan successful?\"\n        );\n\n        FlashloanLocalVars memory vars;\n\n        /* Decode _params */\n        (\n            vars._borrower,\n            vars._repayAmount,\n            vars._cTokenRepay,\n            vars._cTokenCollateral\n        ) = abi.decode(_params, (address, uint256, address, address));\n\n        /* Get Underlying Contract */\n        vars._underlyingAddress = CErc20Storage(vars._cTokenRepay).underlying();\n        vars._underlyingContract = IERC20(vars._underlyingAddress);\n\n        /* Approve CToken Contract Underlying Amount */\n        vars._approveResponse = vars._underlyingContract.approve(vars._cTokenRepay,vars._repayAmount);\n        vars._allowance = vars._underlyingContract.allowance(address(this), vars._cTokenRepay); //(owner this, spender cToken)\n\n        uint256 tokenBalance = vars._underlyingContract.balanceOf(address(this)); // My Balance ? Ok\n\n        // cToken Contracts there repayment (liquidation) happens\n        vars._cTokenRepayContract = CErc20Interface(vars._cTokenRepay);\n\n        // Call Liquidation !!!\n        vars._liquidateBorrowError = vars._cTokenRepayContract.liquidateBorrow(\n            vars._borrower,\n            vars._repayAmount,\n            CTokenInterface(vars._cTokenCollateral)\n        );\n\n        require(vars._liquidateBorrowError == 0, \"Call Liquidation Error !!! \"); // revert if error !!!\n\n        /* Get cToken Balance */\n        vars._cTokenBalanceAfterLiquidation = CTokenInterface(vars._cTokenCollateral).balanceOf(address(this));\n\n        /* Redeem Liquidated assets From CToken */\n        vars._redeemErrorCode = CErc20Interface(vars._cTokenCollateral).redeem(vars._cTokenBalanceAfterLiquidation);\n\n        require(vars._redeemErrorCode == 0, \"Redeem Token Error\");\n\n        fee = _fee;\n        uint256 totalDebt = _amount.add(_fee);\n\n        vars._break = true;\n        transferFundsBackToPoolInternal(_reserve, totalDebt);\n    }\n\n    function flashloan(\n        address _borrower,\n        uint256 _repayAmount,\n        CTokenInterface _cTokenRepay,\n        CTokenInterface _cTokenCollateral\n    ) public onlyOwner {\n        /* Encode Passed Data */\n        bytes memory data = abi.encode(\n            _borrower,\n            _repayAmount,\n            _cTokenRepay,\n            _cTokenCollateral\n        );\n\n        /* Get Underlying Token address Bat, Usdc etc...  */\n        address lendingAsset = CErc20Storage(address(_cTokenRepay)).underlying();\n\n        ILendingPool lendingPool = ILendingPool(addressesProvider.getLendingPool());\n        lendingPool.flashLoan(address(this), lendingAsset, _repayAmount, data);\n    }\n\n    /* @dev Swap ERC Tokens To Tokens : */\n    function setComptroller(ComptrollerInterface _comptroller) public {\n        comptroller = _comptroller;\n    }\n\n    function getNow() public view returns (uint256 _now) {\n        _now = now + 6000;\n    }\n\n    function setTreasuryWallet(address _wallet) public onlyOwner {\n        treasuryWallet = _wallet;\n    }\n\n    function getTreasuryWallet() public view returns (address _treasuryWallet) {\n        _treasuryWallet = treasuryWallet;\n    }\n\n    function getowner() public view returns (address ownerAddress) {\n        ownerAddress = _owner;\n    }\n\n    function owner() public view returns (address) {\n        return _owner;\n    }\n\n    function getContractBalance() public view returns (uint256) {\n        return address(this).balance;\n    }\n\n    function getContractErc20Balance(address _underlyingAddress)\n        public\n        view\n        returns (address _erc20Address, uint256 _balance)\n    {\n        _balance = IERC20(_underlyingAddress).balanceOf(address(this));\n        _erc20Address = _underlyingAddress;\n    }\n\n    function transferAllErc20Tokens(address _erc20address, address _to)\n        public\n        onlyOwner\n        returns (bool result)\n    {\n        uint256 erc20Balance = IERC20(_erc20address).balanceOf(address(this));\n        require(erc20Balance > 0, \"NOT ENOUGH BALANCE\");\n        result = IERC20(_erc20address).transfer(_to, erc20Balance);\n    }\n}\n",
  "sourcePath": "/Users/achiko/Documents/elva/projects/defipools/flashloan-compound/contracts/FlashloanUSDC.sol",
  "compiler": {
    "name": "solc",
    "version": "0.6.2+commit.bacdbe57.Emscripten.clang"
  },
  "schemaVersion": "3.3.1",
  "updatedAt": "2020-12-05T13:56:23.265Z",
  "devdoc": {
    "methods": {}
  },
  "userdoc": {
    "methods": {}
  }
}