{
  "contractName": "Swap",
  "abi": [
    {
      "inputs": [],
      "stateMutability": "nonpayable",
      "type": "constructor"
    },
    {
      "inputs": [],
      "name": "uniswapRouter",
      "outputs": [
        {
          "internalType": "contract IUniswapV2Router01",
          "name": "",
          "type": "address"
        }
      ],
      "stateMutability": "view",
      "type": "function"
    },
    {
      "inputs": [],
      "name": "myName",
      "outputs": [
        {
          "internalType": "string",
          "name": "name",
          "type": "string"
        }
      ],
      "stateMutability": "view",
      "type": "function"
    }
  ],
  "bytecode": "0x608060405234801561001057600080fd5b506101a0806100206000396000f3fe608060405234801561001057600080fd5b50600436106100365760003560e01c8063735de9f71461003b578063fae2dd4b14610085575b600080fd5b610043610108565b604051808273ffffffffffffffffffffffffffffffffffffffff1673ffffffffffffffffffffffffffffffffffffffff16815260200191505060405180910390f35b61008d61012d565b6040518080602001828103825283818151815260200191508051906020019080838360005b838110156100cd5780820151818401526020810190506100b2565b50505050905090810190601f1680156100fa5780820380516001836020036101000a031916815260200191505b509250505060405180910390f35b6000809054906101000a900473ffffffffffffffffffffffffffffffffffffffff1681565b60606040518060400160405280600781526020017f556e69737761700000000000000000000000000000000000000000000000000081525090509056fea264697066735822122016cc6bc56259807dcec99cd6ed44187c3d0bd0ed7c3299ad96a44cbc4dd0c00d64736f6c63430006020033",
  "source": "//pragma solidity ^0.5.15;\npragma solidity >=0.6.2;\n\nimport './uniswap/IUniswapV2Router02.sol';\n\ncontract Swap {\n\n    IUniswapV2Router01 public uniswapRouter;\n\n    constructor () public {\n\n    }\n\n    function myName () public view returns (string memory name) {\n        name = \"Uniswap\";\n    }\n\n}",
  "sourcePath": "/Users/achiko/Documents/elva/projects/defipools/flashloan-compound/contracts/Swap.sol",
  "compiler": {
    "name": "solc",
    "version": "0.6.2+commit.bacdbe57.Emscripten.clang"
  },
  "schemaVersion": "3.2.0",
  "updatedAt": "2020-06-30T11:52:20.382Z",
  "devdoc": {
    "methods": {}
  },
  "userdoc": {
    "methods": {}
  }
}