{
  "contractName": "Swap",
  "abi": [
    {
      "inputs": [],
      "stateMutability": "nonpayable",
      "type": "constructor"
    },
    {
      "anonymous": false,
      "inputs": [
        {
          "indexed": false,
          "internalType": "uint256",
          "name": "_tokenInAmount",
          "type": "uint256"
        },
        {
          "indexed": false,
          "internalType": "address",
          "name": "_tokenInAddress",
          "type": "address"
        },
        {
          "indexed": false,
          "internalType": "address",
          "name": "_tokenOutAddress",
          "type": "address"
        },
        {
          "indexed": false,
          "internalType": "address",
          "name": "_to",
          "type": "address"
        },
        {
          "indexed": false,
          "internalType": "uint256",
          "name": "_deadline",
          "type": "uint256"
        },
        {
          "indexed": false,
          "internalType": "uint256[]",
          "name": "amounts",
          "type": "uint256[]"
        }
      ],
      "name": "LogConvertTokensToTokensEvent",
      "type": "event"
    },
    {
      "inputs": [],
      "name": "uniswapRouter",
      "outputs": [
        {
          "internalType": "contract IUniswapV2Router02",
          "name": "",
          "type": "address"
        }
      ],
      "stateMutability": "view",
      "type": "function"
    },
    {
      "stateMutability": "payable",
      "type": "receive"
    },
    {
      "inputs": [
        {
          "internalType": "uint256",
          "name": "_tokenInAmount",
          "type": "uint256"
        },
        {
          "internalType": "address",
          "name": "_tokenInAddress",
          "type": "address"
        },
        {
          "internalType": "address",
          "name": "_tokenOutAddress",
          "type": "address"
        },
        {
          "internalType": "address",
          "name": "_to",
          "type": "address"
        },
        {
          "internalType": "uint256",
          "name": "_deadline",
          "type": "uint256"
        }
      ],
      "name": "convertTokensToTokens",
      "outputs": [],
      "stateMutability": "payable",
      "type": "function"
    },
    {
      "inputs": [
        {
          "internalType": "uint256",
          "name": "daiAmount",
          "type": "uint256"
        }
      ],
      "name": "convertEthToDai",
      "outputs": [],
      "stateMutability": "payable",
      "type": "function"
    },
    {
      "inputs": [],
      "name": "getNow",
      "outputs": [
        {
          "internalType": "uint256",
          "name": "_now",
          "type": "uint256"
        }
      ],
      "stateMutability": "view",
      "type": "function"
    },
    {
      "inputs": [
        {
          "internalType": "uint256",
          "name": "daiAmount",
          "type": "uint256"
        }
      ],
      "name": "getEstimatedETHforDAI",
      "outputs": [
        {
          "internalType": "uint256[]",
          "name": "",
          "type": "uint256[]"
        }
      ],
      "stateMutability": "view",
      "type": "function"
    },
    {
      "inputs": [],
      "name": "getPathForETHtoDAI",
      "outputs": [
        {
          "internalType": "address[]",
          "name": "",
          "type": "address[]"
        }
      ],
      "stateMutability": "view",
      "type": "function"
    }
  ],
  "bytecode": "0x6080604052736b175474e89094c44da98b954eedeac495271d0f600160006101000a81548173ffffffffffffffffffffffffffffffffffffffff021916908373ffffffffffffffffffffffffffffffffffffffff16021790555034801561006557600080fd5b50737a250d5630b4cf539739df2c5dacb4c659f2488d6000806101000a81548173ffffffffffffffffffffffffffffffffffffffff021916908373ffffffffffffffffffffffffffffffffffffffff160217905550610d43806100c96000396000f3fe6080604052600436106100595760003560e01c806312be150114610065578063735de9f7146100d15780637cab941c14610128578063ada8b83d146101c0578063bbe4fd5014610250578063ff22723a1461027b57610060565b3661006057005b600080fd5b34801561007157600080fd5b5061007a6102a9565b6040518080602001828103825283818151815260200191508051906020019060200280838360005b838110156100bd5780820151818401526020810190506100a2565b505050509050019250505060405180910390f35b3480156100dd57600080fd5b506100e6610439565b604051808273ffffffffffffffffffffffffffffffffffffffff1673ffffffffffffffffffffffffffffffffffffffff16815260200191505060405180910390f35b6101be600480360360a081101561013e57600080fd5b8101908080359060200190929190803573ffffffffffffffffffffffffffffffffffffffff169060200190929190803573ffffffffffffffffffffffffffffffffffffffff169060200190929190803573ffffffffffffffffffffffffffffffffffffffff1690602001909291908035906020019092919050505061045e565b005b3480156101cc57600080fd5b506101f9600480360360208110156101e357600080fd5b8101908080359060200190929190505050610902565b6040518080602001828103825283818151815260200191508051906020019060200280838360005b8381101561023c578082015181840152602081019050610221565b505050509050019250505060405180910390f35b34801561025c57600080fd5b50610265610aa2565b6040518082815260200191505060405180910390f35b6102a76004803603602081101561029157600080fd5b8101908080359060200190929190505050610aad565b005b60608060026040519080825280602002602001820160405280156102dc5781602001602082028038833980820191505090505b5090506000809054906101000a900473ffffffffffffffffffffffffffffffffffffffff1673ffffffffffffffffffffffffffffffffffffffff1663ad5c46486040518163ffffffff1660e01b815260040160206040518083038186803b15801561034657600080fd5b505afa15801561035a573d6000803e3d6000fd5b505050506040513d602081101561037057600080fd5b81019080805190602001909291905050508160008151811061038e57fe5b602002602001019073ffffffffffffffffffffffffffffffffffffffff16908173ffffffffffffffffffffffffffffffffffffffff1681525050600160009054906101000a900473ffffffffffffffffffffffffffffffffffffffff16816001815181106103f857fe5b602002602001019073ffffffffffffffffffffffffffffffffffffffff16908173ffffffffffffffffffffffffffffffffffffffff16815250508091505090565b6000809054906101000a900473ffffffffffffffffffffffffffffffffffffffff1681565b8373ffffffffffffffffffffffffffffffffffffffff1663095ea7b3737a250d5630b4cf539739df2c5dacb4c659f2488d876040518363ffffffff1660e01b8152600401808373ffffffffffffffffffffffffffffffffffffffff1673ffffffffffffffffffffffffffffffffffffffff16815260200182815260200192505050602060405180830381600087803b1580156104f957600080fd5b505af115801561050d573d6000803e3d6000fd5b505050506040513d602081101561052357600080fd5b810190808051906020019092919050505050606060026040519080825280602002602001820160405280156105675781602001602082028038833980820191505090505b509050848160008151811061057857fe5b602002602001019073ffffffffffffffffffffffffffffffffffffffff16908173ffffffffffffffffffffffffffffffffffffffff168152505083816001815181106105c057fe5b602002602001019073ffffffffffffffffffffffffffffffffffffffff16908173ffffffffffffffffffffffffffffffffffffffff168152505060606000809054906101000a900473ffffffffffffffffffffffffffffffffffffffff1673ffffffffffffffffffffffffffffffffffffffff166338ed17398860008588886040518663ffffffff1660e01b815260040180868152602001858152602001806020018473ffffffffffffffffffffffffffffffffffffffff1673ffffffffffffffffffffffffffffffffffffffff168152602001838152602001828103825285818151815260200191508051906020019060200280838360005b838110156106d55780820151818401526020810190506106ba565b505050509050019650505050505050600060405180830381600087803b1580156106fe57600080fd5b505af1158015610712573d6000803e3d6000fd5b505050506040513d6000823e3d601f19601f82011682018060405250602081101561073c57600080fd5b810190808051604051939291908464010000000082111561075c57600080fd5b8382019150602082018581111561077257600080fd5b825186602082028301116401000000008211171561078f57600080fd5b8083526020830192505050908051906020019060200280838360005b838110156107c65780820151818401526020810190506107ab565b5050505090500160405250505090507fb3d81fb7e4574902882ae9eb784ebfb16230e90e9753c2de7778fae67b5dfe29878787878786604051808781526020018673ffffffffffffffffffffffffffffffffffffffff1673ffffffffffffffffffffffffffffffffffffffff1681526020018573ffffffffffffffffffffffffffffffffffffffff1673ffffffffffffffffffffffffffffffffffffffff1681526020018473ffffffffffffffffffffffffffffffffffffffff1673ffffffffffffffffffffffffffffffffffffffff16815260200183815260200180602001828103825283818151815260200191508051906020019060200280838360005b838110156108e15780820151818401526020810190506108c6565b5050505090500197505050505050505060405180910390a150505050505050565b60606000809054906101000a900473ffffffffffffffffffffffffffffffffffffffff1673ffffffffffffffffffffffffffffffffffffffff16631f00ca748361094a6102a9565b6040518363ffffffff1660e01b81526004018083815260200180602001828103825283818151815260200191508051906020019060200280838360005b838110156109a2578082015181840152602081019050610987565b50505050905001935050505060006040518083038186803b1580156109c657600080fd5b505afa1580156109da573d6000803e3d6000fd5b505050506040513d6000823e3d601f19601f820116820180604052506020811015610a0457600080fd5b8101908080516040519392919084640100000000821115610a2457600080fd5b83820191506020820185811115610a3a57600080fd5b8251866020820283011164010000000082111715610a5757600080fd5b8083526020830192505050908051906020019060200280838360005b83811015610a8e578082015181840152602081019050610a73565b505050509050016040525050509050919050565b600060964201905090565b6000600f420190506000809054906101000a900473ffffffffffffffffffffffffffffffffffffffff1673ffffffffffffffffffffffffffffffffffffffff1663fb3bdb413484610afc6102a9565b30866040518663ffffffff1660e01b815260040180858152602001806020018473ffffffffffffffffffffffffffffffffffffffff1673ffffffffffffffffffffffffffffffffffffffff168152602001838152602001828103825285818151815260200191508051906020019060200280838360005b83811015610b8e578082015181840152602081019050610b73565b50505050905001955050505050506000604051808303818588803b158015610bb557600080fd5b505af1158015610bc9573d6000803e3d6000fd5b50505050506040513d6000823e3d601f19601f820116820180604052506020811015610bf457600080fd5b8101908080516040519392919084640100000000821115610c1457600080fd5b83820191506020820185811115610c2a57600080fd5b8251866020820283011164010000000082111715610c4757600080fd5b8083526020830192505050908051906020019060200280838360005b83811015610c7e578082015181840152602081019050610c63565b50505050905001604052505050503373ffffffffffffffffffffffffffffffffffffffff163073ffffffffffffffffffffffffffffffffffffffff163160405180600001905060006040518083038185875af1925050503d8060008114610d01576040519150601f19603f3d011682016040523d82523d6000602084013e610d06565b606091505b505050505056fea2646970667358221220f4c58f7f01ed48e8d4dc81caf2834f860cb1afabce37639eeaf8fb92da8e368964736f6c63430006020033",
  "source": "//pragma solidity ^0.5.15;\npragma solidity >=0.6.2;\n\nimport './uniswap/IUniswapV2Router02.sol';\nimport \"./openzeppelin/IERC20.sol\";\n\n\ncontract Swap {\n  \n  event LogConvertTokensToTokensEvent( uint _tokenInAmount, address _tokenInAddress, address _tokenOutAddress, address _to, uint _deadline, uint[] amounts );\n\n  address internal constant UNISWAP_ROUTER_ADDRESS = 0x7a250d5630B4cF539739dF2C5dAcb4c659F2488D;\n\n  IUniswapV2Router02 public uniswapRouter;\n  address private daiAddress = 0x6B175474E89094C44Da98b954EedeAC495271d0F;\n\n\tconstructor() public {\n\t\tuniswapRouter = IUniswapV2Router02(UNISWAP_ROUTER_ADDRESS);\n\t}\n\n\n\tfunction convertTokensToTokens(uint _tokenInAmount, address _tokenInAddress, address _tokenOutAddress, address _to, uint _deadline) public payable {\n\n\n\t\tIERC20(_tokenInAddress).approve(UNISWAP_ROUTER_ADDRESS, _tokenInAmount); // approve Router to get my tokens !!! \n\n\t\t//Function: swapExactTokensForTokens(uint256 amountIn, uint256 amountOutMin, address[] path, address to, uint256 deadline);\n\t\taddress[] memory path = new address[](2);\n\t\tpath[0] = _tokenInAddress;\n\t\tpath[1] = _tokenOutAddress;\n\t\tuint[] memory amounts = uniswapRouter.swapExactTokensForTokens(_tokenInAmount, 0, path, _to, _deadline);\n\n\t\temit LogConvertTokensToTokensEvent(_tokenInAmount,_tokenInAddress,_tokenOutAddress,_to, _deadline, amounts);\n\t}\n\n\tfunction convertEthToDai(uint daiAmount) public payable {\n\n\t\tuint deadline = now + 15; // using 'now' for convenience, for mainnet pass deadline from frontend!\n\t\tuniswapRouter.swapETHForExactTokens.value(msg.value)(daiAmount, getPathForETHtoDAI(), address(this), deadline);\n\t\t\n\t\t// refund leftover ETH to user\n\t\tmsg.sender.call.value(address(this).balance)(\"\");\n\n\t}\n  \n\tfunction getNow() public view returns (uint _now) {\n\t\t_now = now + 150;\n\t}\n\n\tfunction getEstimatedETHforDAI(uint daiAmount) public view returns (uint[] memory) {\n\t\treturn uniswapRouter.getAmountsIn(daiAmount, getPathForETHtoDAI());\n\t}\n\n\tfunction getPathForETHtoDAI() public view returns (address[] memory) {\n\t\taddress[] memory path = new address[](2);\n\t\tpath[0] = uniswapRouter.WETH();\n\t\tpath[1] = daiAddress;\n\t\t\n\t\treturn path;\n\t}\n\n\t\n  \n  \t// important to receive ETH\n  \treceive() payable external {}\n}\n\n// contract Swap {\n//     IUniswapV2Router01 public uniswapRouter;\n//     constructor () public {\n//     }\n//     function myName () public view returns (string memory name) {\n//         name = \"Uniswap\";\n//     }\n// }",
  "sourcePath": "/Users/achiko/Documents/elva/projects/defipools/flashloan-compound/contracts/Swap.sol",
  "compiler": {
    "name": "solc",
    "version": "0.6.2+commit.bacdbe57.Emscripten.clang"
  },
  "schemaVersion": "3.2.0",
  "updatedAt": "2020-07-01T09:02:54.004Z",
  "devdoc": {
    "methods": {}
  },
  "userdoc": {
    "methods": {}
  }
}