{
  "contractName": "Swap",
  "abi": [
    {
      "inputs": [],
      "stateMutability": "nonpayable",
      "type": "constructor"
    },
    {
      "anonymous": false,
      "inputs": [
        {
          "indexed": false,
          "internalType": "uint256",
          "name": "_tokenInAmount",
          "type": "uint256"
        },
        {
          "indexed": false,
          "internalType": "address",
          "name": "_tokenInAddress",
          "type": "address"
        },
        {
          "indexed": false,
          "internalType": "address",
          "name": "_tokenOutAddress",
          "type": "address"
        },
        {
          "indexed": false,
          "internalType": "address",
          "name": "_to",
          "type": "address"
        },
        {
          "indexed": false,
          "internalType": "uint256",
          "name": "_deadline",
          "type": "uint256"
        },
        {
          "indexed": false,
          "internalType": "uint256[]",
          "name": "amounts",
          "type": "uint256[]"
        }
      ],
      "name": "LogConvertTokensToTokensEvent",
      "type": "event"
    },
    {
      "anonymous": false,
      "inputs": [
        {
          "indexed": false,
          "internalType": "uint256[]",
          "name": "amounts",
          "type": "uint256[]"
        }
      ],
      "name": "Logamounts",
      "type": "event"
    },
    {
      "anonymous": false,
      "inputs": [
        {
          "indexed": false,
          "internalType": "uint256",
          "name": "_amount",
          "type": "uint256"
        },
        {
          "indexed": false,
          "internalType": "address",
          "name": "_tokensOut",
          "type": "address"
        },
        {
          "indexed": false,
          "internalType": "address[]",
          "name": "path",
          "type": "address[]"
        }
      ],
      "name": "convertEthToAnyToken",
      "type": "event"
    },
    {
      "inputs": [],
      "name": "uniswapRouter",
      "outputs": [
        {
          "internalType": "contract IUniswapV2Router02",
          "name": "",
          "type": "address"
        }
      ],
      "stateMutability": "view",
      "type": "function"
    },
    {
      "stateMutability": "payable",
      "type": "receive"
    },
    {
      "inputs": [
        {
          "internalType": "uint256",
          "name": "_tokenInAmount",
          "type": "uint256"
        },
        {
          "internalType": "address",
          "name": "_tokenInAddress",
          "type": "address"
        },
        {
          "internalType": "address",
          "name": "_tokenOutAddress",
          "type": "address"
        },
        {
          "internalType": "address",
          "name": "_to",
          "type": "address"
        },
        {
          "internalType": "uint256",
          "name": "_deadline",
          "type": "uint256"
        }
      ],
      "name": "convertTokensToTokens",
      "outputs": [],
      "stateMutability": "payable",
      "type": "function"
    },
    {
      "inputs": [
        {
          "internalType": "address",
          "name": "_tokensOut",
          "type": "address"
        },
        {
          "internalType": "address",
          "name": "_to",
          "type": "address"
        }
      ],
      "name": "convertETHtoAnyToken",
      "outputs": [],
      "stateMutability": "payable",
      "type": "function"
    },
    {
      "inputs": [
        {
          "internalType": "uint256",
          "name": "daiAmount",
          "type": "uint256"
        }
      ],
      "name": "convertEthToDai",
      "outputs": [],
      "stateMutability": "payable",
      "type": "function"
    },
    {
      "inputs": [],
      "name": "getNow",
      "outputs": [
        {
          "internalType": "uint256",
          "name": "_now",
          "type": "uint256"
        }
      ],
      "stateMutability": "view",
      "type": "function"
    },
    {
      "inputs": [
        {
          "internalType": "uint256",
          "name": "daiAmount",
          "type": "uint256"
        }
      ],
      "name": "getEstimatedETHforDAI",
      "outputs": [
        {
          "internalType": "uint256[]",
          "name": "",
          "type": "uint256[]"
        }
      ],
      "stateMutability": "view",
      "type": "function"
    },
    {
      "inputs": [],
      "name": "getPathForETHtoDAI",
      "outputs": [
        {
          "internalType": "address[]",
          "name": "",
          "type": "address[]"
        }
      ],
      "stateMutability": "view",
      "type": "function"
    }
  ],
  "bytecode": "0x6080604052736b175474e89094c44da98b954eedeac495271d0f600160006101000a81548173ffffffffffffffffffffffffffffffffffffffff021916908373ffffffffffffffffffffffffffffffffffffffff16021790555034801561006557600080fd5b50737a250d5630b4cf539739df2c5dacb4c659f2488d6000806101000a81548173ffffffffffffffffffffffffffffffffffffffff021916908373ffffffffffffffffffffffffffffffffffffffff160217905550611313806100c96000396000f3fe6080604052600436106100745760003560e01c80637cab941c1161004e5780637cab941c146101a7578063ada8b83d1461023f578063bbe4fd50146102cf578063ff22723a146102fa5761007b565b806312be1501146100805780631ea4b80c146100ec578063735de9f7146101505761007b565b3661007b57005b600080fd5b34801561008c57600080fd5b50610095610328565b6040518080602001828103825283818151815260200191508051906020019060200280838360005b838110156100d85780820151818401526020810190506100bd565b505050509050019250505060405180910390f35b61014e6004803603604081101561010257600080fd5b81019080803573ffffffffffffffffffffffffffffffffffffffff169060200190929190803573ffffffffffffffffffffffffffffffffffffffff1690602001909291905050506104b8565b005b34801561015c57600080fd5b50610165610a08565b604051808273ffffffffffffffffffffffffffffffffffffffff1673ffffffffffffffffffffffffffffffffffffffff16815260200191505060405180910390f35b61023d600480360360a08110156101bd57600080fd5b8101908080359060200190929190803573ffffffffffffffffffffffffffffffffffffffff169060200190929190803573ffffffffffffffffffffffffffffffffffffffff169060200190929190803573ffffffffffffffffffffffffffffffffffffffff16906020019092919080359060200190929190505050610a2d565b005b34801561024b57600080fd5b506102786004803603602081101561026257600080fd5b8101908080359060200190929190505050610ed1565b6040518080602001828103825283818151815260200191508051906020019060200280838360005b838110156102bb5780820151818401526020810190506102a0565b505050509050019250505060405180910390f35b3480156102db57600080fd5b506102e4611071565b6040518082815260200191505060405180910390f35b6103266004803603602081101561031057600080fd5b810190808035906020019092919050505061107d565b005b606080600260405190808252806020026020018201604052801561035b5781602001602082028038833980820191505090505b5090506000809054906101000a900473ffffffffffffffffffffffffffffffffffffffff1673ffffffffffffffffffffffffffffffffffffffff1663ad5c46486040518163ffffffff1660e01b815260040160206040518083038186803b1580156103c557600080fd5b505afa1580156103d9573d6000803e3d6000fd5b505050506040513d60208110156103ef57600080fd5b81019080805190602001909291905050508160008151811061040d57fe5b602002602001019073ffffffffffffffffffffffffffffffffffffffff16908173ffffffffffffffffffffffffffffffffffffffff1681525050600160009054906101000a900473ffffffffffffffffffffffffffffffffffffffff168160018151811061047757fe5b602002602001019073ffffffffffffffffffffffffffffffffffffffff16908173ffffffffffffffffffffffffffffffffffffffff16815250508091505090565b606060026040519080825280602002602001820160405280156104ea5781602001602082028038833980820191505090505b5090506000809054906101000a900473ffffffffffffffffffffffffffffffffffffffff1673ffffffffffffffffffffffffffffffffffffffff1663ad5c46486040518163ffffffff1660e01b815260040160206040518083038186803b15801561055457600080fd5b505afa158015610568573d6000803e3d6000fd5b505050506040513d602081101561057e57600080fd5b81019080805190602001909291905050508160008151811061059c57fe5b602002602001019073ffffffffffffffffffffffffffffffffffffffff16908173ffffffffffffffffffffffffffffffffffffffff168152505082816001815181106105e457fe5b602002602001019073ffffffffffffffffffffffffffffffffffffffff16908173ffffffffffffffffffffffffffffffffffffffff168152505060606000809054906101000a900473ffffffffffffffffffffffffffffffffffffffff1673ffffffffffffffffffffffffffffffffffffffff1663d06ca61f34846040518363ffffffff1660e01b81526004018083815260200180602001828103825283818151815260200191508051906020019060200280838360005b838110156106b757808201518184015260208101905061069c565b50505050905001935050505060006040518083038186803b1580156106db57600080fd5b505afa1580156106ef573d6000803e3d6000fd5b505050506040513d6000823e3d601f19601f82011682018060405250602081101561071957600080fd5b810190808051604051939291908464010000000082111561073957600080fd5b8382019150602082018581111561074f57600080fd5b825186602082028301116401000000008211171561076c57600080fd5b8083526020830192505050908051906020019060200280838360005b838110156107a3578082015181840152602081019050610788565b5050505090500160405250505090507f36cc96dc9e6a5d9cfad4775cb7c535a1a1f2abd799a6495eb2da30029d72d794816040518080602001828103825283818151815260200191508051906020019060200280838360005b838110156108175780820151818401526020810190506107fc565b505050509050019250505060405180910390a16000809054906101000a900473ffffffffffffffffffffffffffffffffffffffff1673ffffffffffffffffffffffffffffffffffffffff16637ff36ab53460008587610874611071565b6040518663ffffffff1660e01b815260040180858152602001806020018473ffffffffffffffffffffffffffffffffffffffff1673ffffffffffffffffffffffffffffffffffffffff168152602001838152602001828103825285818151815260200191508051906020019060200280838360005b838110156109045780820151818401526020810190506108e9565b50505050905001955050505050506000604051808303818588803b15801561092b57600080fd5b505af115801561093f573d6000803e3d6000fd5b50505050506040513d6000823e3d601f19601f82011682018060405250602081101561096a57600080fd5b810190808051604051939291908464010000000082111561098a57600080fd5b838201915060208201858111156109a057600080fd5b82518660208202830111640100000000821117156109bd57600080fd5b8083526020830192505050908051906020019060200280838360005b838110156109f45780820151818401526020810190506109d9565b505050509050016040525050505050505050565b6000809054906101000a900473ffffffffffffffffffffffffffffffffffffffff1681565b8373ffffffffffffffffffffffffffffffffffffffff1663095ea7b3737a250d5630b4cf539739df2c5dacb4c659f2488d876040518363ffffffff1660e01b8152600401808373ffffffffffffffffffffffffffffffffffffffff1673ffffffffffffffffffffffffffffffffffffffff16815260200182815260200192505050602060405180830381600087803b158015610ac857600080fd5b505af1158015610adc573d6000803e3d6000fd5b505050506040513d6020811015610af257600080fd5b81019080805190602001909291905050505060606002604051908082528060200260200182016040528015610b365781602001602082028038833980820191505090505b5090508481600081518110610b4757fe5b602002602001019073ffffffffffffffffffffffffffffffffffffffff16908173ffffffffffffffffffffffffffffffffffffffff16815250508381600181518110610b8f57fe5b602002602001019073ffffffffffffffffffffffffffffffffffffffff16908173ffffffffffffffffffffffffffffffffffffffff168152505060606000809054906101000a900473ffffffffffffffffffffffffffffffffffffffff1673ffffffffffffffffffffffffffffffffffffffff166338ed17398860008588886040518663ffffffff1660e01b815260040180868152602001858152602001806020018473ffffffffffffffffffffffffffffffffffffffff1673ffffffffffffffffffffffffffffffffffffffff168152602001838152602001828103825285818151815260200191508051906020019060200280838360005b83811015610ca4578082015181840152602081019050610c89565b505050509050019650505050505050600060405180830381600087803b158015610ccd57600080fd5b505af1158015610ce1573d6000803e3d6000fd5b505050506040513d6000823e3d601f19601f820116820180604052506020811015610d0b57600080fd5b8101908080516040519392919084640100000000821115610d2b57600080fd5b83820191506020820185811115610d4157600080fd5b8251866020820283011164010000000082111715610d5e57600080fd5b8083526020830192505050908051906020019060200280838360005b83811015610d95578082015181840152602081019050610d7a565b5050505090500160405250505090507fb3d81fb7e4574902882ae9eb784ebfb16230e90e9753c2de7778fae67b5dfe29878787878786604051808781526020018673ffffffffffffffffffffffffffffffffffffffff1673ffffffffffffffffffffffffffffffffffffffff1681526020018573ffffffffffffffffffffffffffffffffffffffff1673ffffffffffffffffffffffffffffffffffffffff1681526020018473ffffffffffffffffffffffffffffffffffffffff1673ffffffffffffffffffffffffffffffffffffffff16815260200183815260200180602001828103825283818151815260200191508051906020019060200280838360005b83811015610eb0578082015181840152602081019050610e95565b5050505090500197505050505050505060405180910390a150505050505050565b60606000809054906101000a900473ffffffffffffffffffffffffffffffffffffffff1673ffffffffffffffffffffffffffffffffffffffff16631f00ca7483610f19610328565b6040518363ffffffff1660e01b81526004018083815260200180602001828103825283818151815260200191508051906020019060200280838360005b83811015610f71578082015181840152602081019050610f56565b50505050905001935050505060006040518083038186803b158015610f9557600080fd5b505afa158015610fa9573d6000803e3d6000fd5b505050506040513d6000823e3d601f19601f820116820180604052506020811015610fd357600080fd5b8101908080516040519392919084640100000000821115610ff357600080fd5b8382019150602082018581111561100957600080fd5b825186602082028301116401000000008211171561102657600080fd5b8083526020830192505050908051906020019060200280838360005b8381101561105d578082015181840152602081019050611042565b505050509050016040525050509050919050565b600061028a4201905090565b6000600f420190506000809054906101000a900473ffffffffffffffffffffffffffffffffffffffff1673ffffffffffffffffffffffffffffffffffffffff1663fb3bdb4134846110cc610328565b30866040518663ffffffff1660e01b815260040180858152602001806020018473ffffffffffffffffffffffffffffffffffffffff1673ffffffffffffffffffffffffffffffffffffffff168152602001838152602001828103825285818151815260200191508051906020019060200280838360005b8381101561115e578082015181840152602081019050611143565b50505050905001955050505050506000604051808303818588803b15801561118557600080fd5b505af1158015611199573d6000803e3d6000fd5b50505050506040513d6000823e3d601f19601f8201168201806040525060208110156111c457600080fd5b81019080805160405193929190846401000000008211156111e457600080fd5b838201915060208201858111156111fa57600080fd5b825186602082028301116401000000008211171561121757600080fd5b8083526020830192505050908051906020019060200280838360005b8381101561124e578082015181840152602081019050611233565b50505050905001604052505050503373ffffffffffffffffffffffffffffffffffffffff163073ffffffffffffffffffffffffffffffffffffffff163160405180600001905060006040518083038185875af1925050503d80600081146112d1576040519150601f19603f3d011682016040523d82523d6000602084013e6112d6565b606091505b505050505056fea264697066735822122021a51871e32c0d2a619846a668f4dbaf43d4bf4d05390171e69d3c41571b33c664736f6c63430006020033",
  "source": "//pragma solidity ^0.5.15;\npragma solidity >=0.6.2;\n\nimport './uniswap/IUniswapV2Router02.sol';\nimport \"./openzeppelin/IERC20.sol\";\n\n\ncontract Swap {\n  \n\tevent LogConvertTokensToTokensEvent( uint _tokenInAmount, address _tokenInAddress, address _tokenOutAddress, address _to, uint _deadline, uint[] amounts );\n\tevent convertEthToAnyToken(uint _amount, address _tokensOut, address[] path);\n\tevent Logamounts(uint[] amounts);\n\n  \taddress internal constant UNISWAP_ROUTER_ADDRESS = 0x7a250d5630B4cF539739dF2C5dAcb4c659F2488D;\n\n  \tIUniswapV2Router02 public uniswapRouter;\n  \taddress private daiAddress = 0x6B175474E89094C44Da98b954EedeAC495271d0F;\n\n\tconstructor() public {\n\t\tuniswapRouter = IUniswapV2Router02(UNISWAP_ROUTER_ADDRESS);\n\t}\n\n\n\t/*  Swap Exact Tokens To Tokens */\n\t\n\tfunction convertTokensToTokens(uint _tokenInAmount, address _tokenInAddress, address _tokenOutAddress, address _to, uint _deadline) public payable {\n\n\t\tIERC20(_tokenInAddress).approve(UNISWAP_ROUTER_ADDRESS, _tokenInAmount); // approve Router to get my tokens !!! \n\n\t\t//Function: swapExactTokensForTokens(uint256 amountIn, uint256 amountOutMin, address[] path, address to, uint256 deadline);\n\t\taddress[] memory path = new address[](2);\n\t\tpath[0] = _tokenInAddress;\n\t\tpath[1] = _tokenOutAddress;\n\t\tuint[] memory amounts = uniswapRouter.swapExactTokensForTokens(_tokenInAmount, 0, path, _to, _deadline);\n\n\t\temit LogConvertTokensToTokensEvent(_tokenInAmount,_tokenInAddress,_tokenOutAddress,_to, _deadline, amounts);\n\t}\n\n\t\n\t/**  Convert ETH to Any kind of Tokens ...  **/\n\tfunction convertETHtoAnyToken(address _tokensOut, address _to) public payable {\n\t\taddress[] memory path = new address[](2);\n\t\tpath[0] = uniswapRouter.WETH();\n\t\tpath[1] = _tokensOut;\n\t\tuint[] memory amounts = uniswapRouter.getAmountsOut(msg.value, path);\n\t\temit Logamounts(amounts);\n\t\tuniswapRouter.swapExactETHForTokens{value : msg.value}(0, path, _to, getNow());\n\t\t//emit convertEthToAnyToken(_amount, _tokensOut, path);\n\t}\n\t\n\t/* Convert ETH To Dai */\n\tfunction convertEthToDai(uint daiAmount) public payable {\n\n\t\tuint deadline = now + 15; // using 'now' for convenience, for mainnet pass deadline from frontend!\n\t\tuniswapRouter.swapETHForExactTokens.value(msg.value)(daiAmount, getPathForETHtoDAI(), address(this), deadline);\n\t\t\n\t\t// refund leftover ETH to user\n\t\tmsg.sender.call.value(address(this).balance)(\"\");\n\n\t}\n  \n\tfunction getNow() public view returns (uint _now) {\n\t\t_now = now + 650;\n\t}\n\n\tfunction getEstimatedETHforDAI(uint daiAmount) public view returns (uint[] memory) {\n\t\treturn uniswapRouter.getAmountsIn(daiAmount, getPathForETHtoDAI());\n\t}\n\n\t//function getPair(address tokenA, address tokenB) external view returns (address pair);\n\n\tfunction getPathForETHtoDAI() public view returns (address[] memory) {\n\t\taddress[] memory path = new address[](2);\n\t\tpath[0] = uniswapRouter.WETH();\n\t\tpath[1] = daiAddress;\n\t\t\n\t\treturn path;\n\t}\n\n  \t// important to receive ETH\n  \treceive() payable external {}\n}\n",
  "sourcePath": "/Users/achiko/Documents/elva/projects/defipools/flashloan-compound/contracts/Swap.sol",
  "compiler": {
    "name": "solc",
    "version": "0.6.2+commit.bacdbe57.Emscripten.clang"
  },
  "schemaVersion": "3.2.0",
  "updatedAt": "2020-07-21T15:26:08.879Z",
  "devdoc": {
    "methods": {}
  },
  "userdoc": {
    "methods": {
      "convertETHtoAnyToken(address,address)": {
        "notice": "Convert ETH to Any kind of Tokens ...  *"
      }
    }
  }
}